{
  "contractName": "Tweeder",
  "abi": [
    {
      "constant": true,
      "inputs": [
        {
          "name": "tweedUUID",
          "type": "bytes32"
        }
      ],
      "name": "getRepliesCount",
      "outputs": [
        {
          "name": "",
          "type": "uint256"
        }
      ],
      "payable": false,
      "stateMutability": "view",
      "type": "function",
      "signature": "0x096f646d"
    },
    {
      "constant": false,
      "inputs": [
        {
          "name": "tweedUUID",
          "type": "bytes32"
        },
        {
          "name": "replyIndex",
          "type": "uint256"
        }
      ],
      "name": "deleteReply",
      "outputs": [
        {
          "name": "",
          "type": "bool"
        }
      ],
      "payable": false,
      "stateMutability": "nonpayable",
      "type": "function",
      "signature": "0x28e0f0b6"
    },
    {
      "constant": false,
      "inputs": [
        {
          "name": "tweedIndex",
          "type": "uint256"
        },
        {
          "name": "newContent",
          "type": "string"
        }
      ],
      "name": "editTweed",
      "outputs": [
        {
          "name": "",
          "type": "bool"
        }
      ],
      "payable": false,
      "stateMutability": "nonpayable",
      "type": "function",
      "signature": "0x2ef00ac2"
    },
    {
      "constant": true,
      "inputs": [
        {
          "name": "tweedUUID",
          "type": "bytes32"
        },
        {
          "name": "replyIndex",
          "type": "uint256"
        }
      ],
      "name": "getReply",
      "outputs": [
        {
          "name": "id",
          "type": "uint256"
        },
        {
          "name": "uuid",
          "type": "bytes32"
        },
        {
          "name": "userAdress",
          "type": "address"
        },
        {
          "name": "date",
          "type": "uint256"
        },
        {
          "name": "text",
          "type": "string"
        },
        {
          "name": "edited",
          "type": "bool"
        },
        {
          "name": "hidden",
          "type": "bool"
        }
      ],
      "payable": false,
      "stateMutability": "view",
      "type": "function",
      "signature": "0x3d622666"
    },
    {
      "constant": false,
      "inputs": [
        {
          "name": "tweedUUID",
          "type": "bytes32"
        },
        {
          "name": "replyContent",
          "type": "string"
        }
      ],
      "name": "postReply",
      "outputs": [
        {
          "name": "",
          "type": "bool"
        }
      ],
      "payable": false,
      "stateMutability": "nonpayable",
      "type": "function",
      "signature": "0x4e525e40"
    },
    {
      "constant": false,
      "inputs": [
        {
          "name": "receivedContent",
          "type": "string"
        }
      ],
      "name": "postTweed",
      "outputs": [
        {
          "name": "",
          "type": "bool"
        }
      ],
      "payable": false,
      "stateMutability": "nonpayable",
      "type": "function",
      "signature": "0x59c38be8"
    },
    {
      "constant": true,
      "inputs": [
        {
          "name": "addr",
          "type": "address"
        }
      ],
      "name": "getBalanceInEth",
      "outputs": [
        {
          "name": "",
          "type": "uint256"
        }
      ],
      "payable": false,
      "stateMutability": "view",
      "type": "function",
      "signature": "0x7bd703e8"
    },
    {
      "constant": false,
      "inputs": [
        {
          "name": "receiver",
          "type": "address"
        },
        {
          "name": "amount",
          "type": "uint256"
        }
      ],
      "name": "sendCoin",
      "outputs": [
        {
          "name": "sufficient",
          "type": "bool"
        }
      ],
      "payable": false,
      "stateMutability": "nonpayable",
      "type": "function",
      "signature": "0x90b98a11"
    },
    {
      "constant": true,
      "inputs": [
        {
          "name": "user",
          "type": "address"
        }
      ],
      "name": "getTweedsCount",
      "outputs": [
        {
          "name": "",
          "type": "uint256"
        }
      ],
      "payable": false,
      "stateMutability": "view",
      "type": "function",
      "signature": "0xc7093f99"
    },
    {
      "constant": true,
      "inputs": [
        {
          "name": "userAddress",
          "type": "address"
        },
        {
          "name": "tweedIndex",
          "type": "uint256"
        }
      ],
      "name": "getTweed",
      "outputs": [
        {
          "name": "id",
          "type": "uint256"
        },
        {
          "name": "uuid",
          "type": "bytes32"
        },
        {
          "name": "user",
          "type": "address"
        },
        {
          "name": "date",
          "type": "uint256"
        },
        {
          "name": "text",
          "type": "string"
        },
        {
          "name": "retweet",
          "type": "bool"
        },
        {
          "name": "edited",
          "type": "bool"
        },
        {
          "name": "hidden",
          "type": "bool"
        }
      ],
      "payable": false,
      "stateMutability": "view",
      "type": "function",
      "signature": "0xd2fdc59c"
    },
    {
      "constant": false,
      "inputs": [
        {
          "name": "tweedIndex",
          "type": "uint256"
        }
      ],
      "name": "deleteTweed",
      "outputs": [
        {
          "name": "",
          "type": "bool"
        }
      ],
      "payable": false,
      "stateMutability": "nonpayable",
      "type": "function",
      "signature": "0xdd7d9b7e"
    },
    {
      "constant": false,
      "inputs": [
        {
          "name": "tweedUUID",
          "type": "bytes32"
        },
        {
          "name": "replyIndex",
          "type": "uint256"
        },
        {
          "name": "newContent",
          "type": "string"
        }
      ],
      "name": "editRelpy",
      "outputs": [
        {
          "name": "",
          "type": "bool"
        }
      ],
      "payable": false,
      "stateMutability": "nonpayable",
      "type": "function",
      "signature": "0xf1f22365"
    },
    {
      "constant": true,
      "inputs": [
        {
          "name": "addr",
          "type": "address"
        }
      ],
      "name": "getBalance",
      "outputs": [
        {
          "name": "",
          "type": "uint256"
        }
      ],
      "payable": false,
      "stateMutability": "view",
      "type": "function",
      "signature": "0xf8b2cb4f"
    },
    {
      "inputs": [],
      "payable": false,
      "stateMutability": "nonpayable",
      "type": "constructor",
      "signature": "constructor"
    },
    {
      "anonymous": false,
      "inputs": [
        {
          "indexed": true,
          "name": "_from",
          "type": "address"
        },
        {
          "indexed": true,
          "name": "_to",
          "type": "address"
        },
        {
          "indexed": false,
          "name": "_value",
          "type": "uint256"
        }
      ],
      "name": "Transfer",
      "type": "event",
      "signature": "0xddf252ad1be2c89b69c2b068fc378daa952ba7f163c4a11628f55a4df523b3ef"
    }
  ],
  "bytecode": "0x608060405234801561001057600080fd5b506127106000803373ffffffffffffffffffffffffffffffffffffffff1673ffffffffffffffffffffffffffffffffffffffff168152602001908152602001600020819055506120e3806100656000396000f3fe6080604052600436106100c5576000357c0100000000000000000000000000000000000000000000000000000000900463ffffffff168063096f646d146100ca57806328e0f0b6146101195780632ef00ac2146101765780633d622666146102605780634e525e401461037c57806359c38be8146104665780637bd703e81461054657806390b98a11146105ab578063c7093f991461061e578063d2fdc59c14610683578063dd7d9b7e146107c0578063f1f2236514610813578063f8b2cb4f14610907575b600080fd5b3480156100d657600080fd5b50610103600480360360208110156100ed57600080fd5b810190808035906020019092919050505061096c565b6040518082815260200191505060405180910390f35b34801561012557600080fd5b5061015c6004803603604081101561013c57600080fd5b81019080803590602001909291908035906020019092919050505061098f565b604051808215151515815260200191505060405180910390f35b34801561018257600080fd5b506102466004803603604081101561019957600080fd5b8101908080359060200190929190803590602001906401000000008111156101c057600080fd5b8201836020820111156101d257600080fd5b803590602001918460018302840111640100000000831117156101f457600080fd5b91908080601f016020809104026020016040519081016040528093929190818152602001838380828437600081840152601f19601f820116905080830192505050505050509192919290505050610a27565b604051808215151515815260200191505060405180910390f35b34801561026c57600080fd5b506102a36004803603604081101561028357600080fd5b810190808035906020019092919080359060200190929190505050610da9565b604051808881526020018781526020018673ffffffffffffffffffffffffffffffffffffffff1673ffffffffffffffffffffffffffffffffffffffff168152602001858152602001806020018415151515815260200183151515158152602001828103825285818151815260200191508051906020019080838360005b8381101561033b578082015181840152602081019050610320565b50505050905090810190601f1680156103685780820380516001836020036101000a031916815260200191505b509850505050505050505060405180910390f35b34801561038857600080fd5b5061044c6004803603604081101561039f57600080fd5b8101908080359060200190929190803590602001906401000000008111156103c657600080fd5b8201836020820111156103d857600080fd5b803590602001918460018302840111640100000000831117156103fa57600080fd5b91908080601f016020809104026020016040519081016040528093929190818152602001838380828437600081840152601f19601f820116905080830192505050505050509192919290505050611029565b604051808215151515815260200191505060405180910390f35b34801561047257600080fd5b5061052c6004803603602081101561048957600080fd5b81019080803590602001906401000000008111156104a657600080fd5b8201836020820111156104b857600080fd5b803590602001918460018302840111640100000000831117156104da57600080fd5b91908080601f016020809104026020016040519081016040528093929190818152602001838380828437600081840152601f19601f820116905080830192505050505050509192919290505050611276565b604051808215151515815260200191505060405180910390f35b34801561055257600080fd5b506105956004803603602081101561056957600080fd5b81019080803573ffffffffffffffffffffffffffffffffffffffff169060200190929190505050611544565b6040518082815260200191505060405180910390f35b3480156105b757600080fd5b50610604600480360360408110156105ce57600080fd5b81019080803573ffffffffffffffffffffffffffffffffffffffff16906020019092919080359060200190929190505050611604565b604051808215151515815260200191505060405180910390f35b34801561062a57600080fd5b5061066d6004803603602081101561064157600080fd5b81019080803573ffffffffffffffffffffffffffffffffffffffff16906020019092919050505061175d565b6040518082815260200191505060405180910390f35b34801561068f57600080fd5b506106dc600480360360408110156106a657600080fd5b81019080803573ffffffffffffffffffffffffffffffffffffffff169060200190929190803590602001909291905050506117ac565b604051808981526020018881526020018773ffffffffffffffffffffffffffffffffffffffff1673ffffffffffffffffffffffffffffffffffffffff16815260200186815260200180602001851515151581526020018415151515815260200183151515158152602001828103825286818151815260200191508051906020019080838360005b8381101561077e578082015181840152602081019050610763565b50505050905090810190601f1680156107ab5780820380516001836020036101000a031916815260200191505b50995050505050505050505060405180910390f35b3480156107cc57600080fd5b506107f9600480360360208110156107e357600080fd5b8101908080359060200190929190505050611ab5565b604051808215151515815260200191505060405180910390f35b34801561081f57600080fd5b506108ed6004803603606081101561083657600080fd5b8101908080359060200190929190803590602001909291908035906020019064010000000081111561086757600080fd5b82018360208201111561087957600080fd5b8035906020019184600183028401116401000000008311171561089b57600080fd5b91908080601f016020809104026020016040519081016040528093929190818152602001838380828437600081840152601f19601f820116905080830192505050505050509192919290505050611b8f565b604051808215151515815260200191505060405180910390f35b34801561091357600080fd5b506109566004803603602081101561092a57600080fd5b81019080803573ffffffffffffffffffffffffffffffffffffffff169060200190929190505050611e7e565b6040518082815260200191505060405180910390f35b600060026000838152602001908152602001600020600001805490509050919050565b6000600260008481526020019081526020016000205060026000848152602001908152602001600020600001805490508211156109cf5760009050610a21565b600160026000858152602001908152602001600020600001838154811015156109f457fe5b906000526020600020906006020160050160016101000a81548160ff021916908315150217905550600190505b92915050565b6000610a3282611ec6565b1515610a415760009050610da3565b610a49611ef6565b600160003373ffffffffffffffffffffffffffffffffffffffff1673ffffffffffffffffffffffffffffffffffffffff16815260200190815260200160002060000184815481101515610a9857fe5b9060005260206000209060060201610100604051908101604052908160008201548152602001600182015481526020016002820160009054906101000a900473ffffffffffffffffffffffffffffffffffffffff1673ffffffffffffffffffffffffffffffffffffffff1673ffffffffffffffffffffffffffffffffffffffff168152602001600382015481526020016004820160206040519081016040529081600082018054600181600116156101000203166002900480601f016020809104026020016040519081016040528092919081815260200182805460018160011615610100020316600290048015610bd15780601f10610ba657610100808354040283529160200191610bd1565b820191906000526020600020905b815481529060010190602001808311610bb457829003601f168201915b50505050508152505081526020016005820160009054906101000a900460ff161515151581526020016005820160019054906101000a900460ff161515151581526020016005820160029054906101000a900460ff16151515158152505090508281608001516000018190525060018160c001901515908115158152505080600160003373ffffffffffffffffffffffffffffffffffffffff1673ffffffffffffffffffffffffffffffffffffffff16815260200190815260200160002060000185815481101515610c9f57fe5b9060005260206000209060060201600082015181600001556020820151816001015560408201518160020160006101000a81548173ffffffffffffffffffffffffffffffffffffffff021916908373ffffffffffffffffffffffffffffffffffffffff160217905550606082015181600301556080820151816004016000820151816000019080519060200190610d37929190611f61565b50505060a08201518160050160006101000a81548160ff02191690831515021790555060c08201518160050160016101000a81548160ff02191690831515021790555060e08201518160050160026101000a81548160ff02191690831515021790555090505060019150505b92915050565b6000806000806060600080610dbc611fe1565b600260008b815260200190815260200160002060000189815481101515610ddf57fe5b906000526020600020906006020160e0604051908101604052908160008201548152602001600182015481526020016002820160009054906101000a900473ffffffffffffffffffffffffffffffffffffffff1673ffffffffffffffffffffffffffffffffffffffff1673ffffffffffffffffffffffffffffffffffffffff168152602001600382015481526020016004820160206040519081016040529081600082018054600181600116156101000203166002900480601f016020809104026020016040519081016040528092919081815260200182805460018160011615610100020316600290048015610f175780601f10610eec57610100808354040283529160200191610f17565b820191906000526020600020905b815481529060010190602001808311610efa57829003601f168201915b50505050508152505081526020016005820160009054906101000a900460ff161515151581526020016005820160019054906101000a900460ff1615151515815250509050600260008b81526020019081526020016000206000018054905089101580610f8557508060c001515b15610fe3576000806001026000806040805190810160405280601981526020017f4e6f205265706c69657320746f2074686973205477656564210000000000000081525060008084945097509750975097509750975097505061101d565b80600001518160200151826040015183606001518460800151600001518560a001518660c001518292509750975097509750975097509750505b92959891949750929550565b600061103482611ec6565b15156110435760009050611270565b61104b612042565b602060405190810160405280848152509050600084846040516020018083815260200182805190602001908083835b60208310151561109f578051825260208201915060208101905060208303925061107a565b6001836020036101000a03801982511681845116808217855250505050505090500192505050604051602081830303815290604052805190602001209050600060026000878152602001908152602001600020600001805490509050611103611fe1565b60e0604051908101604052808381526020018481526020013373ffffffffffffffffffffffffffffffffffffffff168152602001428152602001858152602001600015158152602001600015158152509050600260008881526020019081526020016000206000018190806001815401808255809150509060018203906000526020600020906006020160009091929091909150600082015181600001556020820151816001015560408201518160020160006101000a81548173ffffffffffffffffffffffffffffffffffffffff021916908373ffffffffffffffffffffffffffffffffffffffff160217905550606082015181600301556080820151816004016000820151816000019080519060200190611221929190611f61565b50505060a08201518160050160006101000a81548160ff02191690831515021790555060c08201518160050160016101000a81548160ff02191690831515021790555050505060019450505050505b92915050565b600061128182611ec6565b1515611290576000905061153f565b611298612056565b6020604051908101604052808481525090506000600160003373ffffffffffffffffffffffffffffffffffffffff1673ffffffffffffffffffffffffffffffffffffffff168152602001908152602001600020600001805490509050600081856040516020018083815260200182805190602001908083835b6020831015156113365780518252602082019150602081019050602083039250611311565b6001836020036101000a0380198251168184511680821785525050505050509050019250505060405160208183030381529060405280519060200120905061137c611ef6565b610100604051908101604052808481526020018381526020013373ffffffffffffffffffffffffffffffffffffffff168152602001428152602001858152602001600015158152602001600015158152602001600015158152509050600160003373ffffffffffffffffffffffffffffffffffffffff1673ffffffffffffffffffffffffffffffffffffffff1681526020019081526020016000206000018190806001815401808255809150509060018203906000526020600020906006020160009091929091909150600082015181600001556020820151816001015560408201518160020160006101000a81548173ffffffffffffffffffffffffffffffffffffffff021916908373ffffffffffffffffffffffffffffffffffffffff1602179055506060820151816003015560808201518160040160008201518160000190805190602001906114d0929190611f61565b50505060a08201518160050160006101000a81548160ff02191690831515021790555060c08201518160050160016101000a81548160ff02191690831515021790555060e08201518160050160026101000a81548160ff02191690831515021790555050505060019450505050505b919050565b600073__ConvertLib____________________________6396e4ee3d61156984611e7e565b60026040518363ffffffff167c0100000000000000000000000000000000000000000000000000000000028152600401808381526020018281526020019250505060206040518083038186803b1580156115c257600080fd5b505af41580156115d6573d6000803e3d6000fd5b505050506040513d60208110156115ec57600080fd5b81019080805190602001909291905050509050919050565b6000816000803373ffffffffffffffffffffffffffffffffffffffff1673ffffffffffffffffffffffffffffffffffffffff1681526020019081526020016000205410156116555760009050611757565b816000803373ffffffffffffffffffffffffffffffffffffffff1673ffffffffffffffffffffffffffffffffffffffff16815260200190815260200160002060008282540392505081905550816000808573ffffffffffffffffffffffffffffffffffffffff1673ffffffffffffffffffffffffffffffffffffffff168152602001908152602001600020600082825401925050819055508273ffffffffffffffffffffffffffffffffffffffff163373ffffffffffffffffffffffffffffffffffffffff167fddf252ad1be2c89b69c2b068fc378daa952ba7f163c4a11628f55a4df523b3ef846040518082815260200191505060405180910390a3600190505b92915050565b6000600160008373ffffffffffffffffffffffffffffffffffffffff1673ffffffffffffffffffffffffffffffffffffffff168152602001908152602001600020600001805490509050919050565b600080600080606060008060006117c1611ef6565b600160008c73ffffffffffffffffffffffffffffffffffffffff1673ffffffffffffffffffffffffffffffffffffffff1681526020019081526020016000206000018a81548110151561181057fe5b9060005260206000209060060201610100604051908101604052908160008201548152602001600182015481526020016002820160009054906101000a900473ffffffffffffffffffffffffffffffffffffffff1673ffffffffffffffffffffffffffffffffffffffff1673ffffffffffffffffffffffffffffffffffffffff168152602001600382015481526020016004820160206040519081016040529081600082018054600181600116156101000203166002900480601f0160208091040260200160405190810160405280929190818152602001828054600181600116156101000203166002900480156119495780601f1061191e57610100808354040283529160200191611949565b820191906000526020600020905b81548152906001019060200180831161192c57829003601f168201915b50505050508152505081526020016005820160009054906101000a900460ff161515151581526020016005820160019054906101000a900460ff161515151581526020016005820160029054906101000a900460ff1615151515815250509050600160008c73ffffffffffffffffffffffffffffffffffffffff1673ffffffffffffffffffffffffffffffffffffffff168152602001908152602001600020600001805490508a101580611a055750600115158160e001511515145b15611a67576000806001026000806040805190810160405280601a81526020017f4e6f20547765656473206f6e2074686973204163636f756e742100000000000081525060008060008595509850985098509850985098509850985050611aa8565b80600001518160200151826040015183606001518460800151600001518560a001518660c001518760e0015183935098509850985098509850985098509850505b9295985092959890939650565b6000600160003373ffffffffffffffffffffffffffffffffffffffff1673ffffffffffffffffffffffffffffffffffffffff16815260200190815260200160002060000180549050821115611b0d5760009050611b8a565b60018060003373ffffffffffffffffffffffffffffffffffffffff1673ffffffffffffffffffffffffffffffffffffffff16815260200190815260200160002060000183815481101515611b5d57fe5b906000526020600020906006020160050160026101000a81548160ff021916908315150217905550600190505b919050565b6000611b9a82611ec6565b1515611ba95760009050611e77565b611bb1611fe1565b6002600086815260200190815260200160002060000184815481101515611bd457fe5b906000526020600020906006020160e0604051908101604052908160008201548152602001600182015481526020016002820160009054906101000a900473ffffffffffffffffffffffffffffffffffffffff1673ffffffffffffffffffffffffffffffffffffffff1673ffffffffffffffffffffffffffffffffffffffff168152602001600382015481526020016004820160206040519081016040529081600082018054600181600116156101000203166002900480601f016020809104026020016040519081016040528092919081815260200182805460018160011615610100020316600290048015611d0c5780601f10611ce157610100808354040283529160200191611d0c565b820191906000526020600020905b815481529060010190602001808311611cef57829003601f168201915b50505050508152505081526020016005820160009054906101000a900460ff161515151581526020016005820160019054906101000a900460ff16151515158152505090508281608001516000018190525060018160a0019015159081151581525050806002600087815260200190815260200160002060000185815481101515611d9357fe5b9060005260206000209060060201600082015181600001556020820151816001015560408201518160020160006101000a81548173ffffffffffffffffffffffffffffffffffffffff021916908373ffffffffffffffffffffffffffffffffffffffff160217905550606082015181600301556080820151816004016000820151816000019080519060200190611e2b929190611f61565b50505060a08201518160050160006101000a81548160ff02191690831515021790555060c08201518160050160016101000a81548160ff02191690831515021790555090505060019150505b9392505050565b60008060008373ffffffffffffffffffffffffffffffffffffffff1673ffffffffffffffffffffffffffffffffffffffff168152602001908152602001600020549050919050565b6000808251905060b4811180611edc5750600081145b15611eeb576000915050611ef1565b60019150505b919050565b610100604051908101604052806000815260200160008019168152602001600073ffffffffffffffffffffffffffffffffffffffff16815260200160008152602001611f4061206a565b81526020016000151581526020016000151581526020016000151581525090565b828054600181600116156101000203166002900490600052602060002090601f016020900481019282601f10611fa257805160ff1916838001178555611fd0565b82800160010185558215611fd0579182015b82811115611fcf578251825591602001919060010190611fb4565b5b509050611fdd919061207e565b5090565b60e0604051908101604052806000815260200160008019168152602001600073ffffffffffffffffffffffffffffffffffffffff1681526020016000815260200161202a6120a3565b81526020016000151581526020016000151581525090565b602060405190810160405280606081525090565b602060405190810160405280606081525090565b602060405190810160405280606081525090565b6120a091905b8082111561209c576000816000905550600101612084565b5090565b90565b60206040519081016040528060608152509056fea165627a7a7230582080a05fe53e9d4467944dda0500f85826d6cde9cd36a506a849042c2f0eaa5fc50029",
  "source": "pragma solidity >=0.4.25 <0.6.0;\n\nimport \"./TweederCore.sol\";\nimport \"./TweederCoin.sol\";\n\ncontract Tweeder is TweederCoin, TweederCore{\n    event Transfer(address indexed _from, address indexed _to, uint256 _value);\n    constructor() public {\n\n    }\n\n}\n",
  "sourcePath": "/Users/mock/Documents/self/ethereum/Tweeder/TweederEth/contracts/Tweeder.sol",
  "compiler": {
    "name": "solc",
    "version": "0.5.0+commit.1d4f565a.Emscripten.clang"
  },
  "schemaVersion": "3.0.1",
  "updatedAt": "2019-02-09T12:46:36.076Z",
  "devdoc": {
    "methods": {}
  },
  "userdoc": {
    "methods": {}
  }
}