{
  "contractName": "Tweeder",
  "abi": [
    {
      "constant": true,
      "inputs": [
        {
          "name": "tweedUUID",
          "type": "bytes32"
        }
      ],
      "name": "getRepliesCount",
      "outputs": [
        {
          "name": "",
          "type": "uint256"
        }
      ],
      "payable": false,
      "stateMutability": "view",
      "type": "function",
      "signature": "0x096f646d"
    },
    {
      "constant": false,
      "inputs": [
        {
          "name": "tweedUUID",
          "type": "bytes32"
        },
        {
          "name": "replyIndex",
          "type": "uint256"
        }
      ],
      "name": "deleteReply",
      "outputs": [
        {
          "name": "",
          "type": "bool"
        }
      ],
      "payable": false,
      "stateMutability": "nonpayable",
      "type": "function",
      "signature": "0x28e0f0b6"
    },
    {
      "constant": false,
      "inputs": [
        {
          "name": "tweedIndex",
          "type": "uint256"
        },
        {
          "name": "newContent",
          "type": "string"
        }
      ],
      "name": "editTweed",
      "outputs": [
        {
          "name": "",
          "type": "bool"
        }
      ],
      "payable": false,
      "stateMutability": "nonpayable",
      "type": "function",
      "signature": "0x2ef00ac2"
    },
    {
      "constant": true,
      "inputs": [
        {
          "name": "tweedUUID",
          "type": "bytes32"
        },
        {
          "name": "replyIndex",
          "type": "uint256"
        }
      ],
      "name": "getReply",
      "outputs": [
        {
          "name": "id",
          "type": "uint256"
        },
        {
          "name": "uuid",
          "type": "bytes32"
        },
        {
          "name": "userAdress",
          "type": "address"
        },
        {
          "name": "date",
          "type": "uint256"
        },
        {
          "name": "text",
          "type": "string"
        },
        {
          "name": "edited",
          "type": "bool"
        },
        {
          "name": "hidden",
          "type": "bool"
        }
      ],
      "payable": false,
      "stateMutability": "view",
      "type": "function",
      "signature": "0x3d622666"
    },
    {
      "constant": false,
      "inputs": [
        {
          "name": "tweedUUID",
          "type": "bytes32"
        },
        {
          "name": "replyContent",
          "type": "string"
        }
      ],
      "name": "postReply",
      "outputs": [
        {
          "name": "",
          "type": "bool"
        }
      ],
      "payable": false,
      "stateMutability": "nonpayable",
      "type": "function",
      "signature": "0x4e525e40"
    },
    {
      "constant": false,
      "inputs": [
        {
          "name": "receivedContent",
          "type": "string"
        }
      ],
      "name": "postTweed",
      "outputs": [
        {
          "name": "",
          "type": "bool"
        }
      ],
      "payable": false,
      "stateMutability": "nonpayable",
      "type": "function",
      "signature": "0x59c38be8"
    },
    {
      "constant": false,
      "inputs": [
        {
          "name": "receiver",
          "type": "address"
        },
        {
          "name": "amount",
          "type": "uint256"
        }
      ],
      "name": "sendCoin",
      "outputs": [
        {
          "name": "sufficient",
          "type": "bool"
        }
      ],
      "payable": false,
      "stateMutability": "nonpayable",
      "type": "function",
      "signature": "0x90b98a11"
    },
    {
      "constant": true,
      "inputs": [
        {
          "name": "user",
          "type": "address"
        }
      ],
      "name": "getTweedsCount",
      "outputs": [
        {
          "name": "",
          "type": "uint256"
        }
      ],
      "payable": false,
      "stateMutability": "view",
      "type": "function",
      "signature": "0xc7093f99"
    },
    {
      "constant": true,
      "inputs": [
        {
          "name": "userAddress",
          "type": "address"
        },
        {
          "name": "tweedIndex",
          "type": "uint256"
        }
      ],
      "name": "getTweed",
      "outputs": [
        {
          "name": "id",
          "type": "uint256"
        },
        {
          "name": "uuid",
          "type": "bytes32"
        },
        {
          "name": "user",
          "type": "address"
        },
        {
          "name": "date",
          "type": "uint256"
        },
        {
          "name": "text",
          "type": "string"
        },
        {
          "name": "retweet",
          "type": "bool"
        },
        {
          "name": "edited",
          "type": "bool"
        },
        {
          "name": "hidden",
          "type": "bool"
        }
      ],
      "payable": false,
      "stateMutability": "view",
      "type": "function",
      "signature": "0xd2fdc59c"
    },
    {
      "constant": false,
      "inputs": [
        {
          "name": "tweedIndex",
          "type": "uint256"
        }
      ],
      "name": "deleteTweed",
      "outputs": [
        {
          "name": "",
          "type": "bool"
        }
      ],
      "payable": false,
      "stateMutability": "nonpayable",
      "type": "function",
      "signature": "0xdd7d9b7e"
    },
    {
      "constant": false,
      "inputs": [
        {
          "name": "tweedUUID",
          "type": "bytes32"
        },
        {
          "name": "replyIndex",
          "type": "uint256"
        },
        {
          "name": "newContent",
          "type": "string"
        }
      ],
      "name": "editRelpy",
      "outputs": [
        {
          "name": "",
          "type": "bool"
        }
      ],
      "payable": false,
      "stateMutability": "nonpayable",
      "type": "function",
      "signature": "0xf1f22365"
    },
    {
      "constant": true,
      "inputs": [
        {
          "name": "addr",
          "type": "address"
        }
      ],
      "name": "getBalance",
      "outputs": [
        {
          "name": "",
          "type": "uint256"
        }
      ],
      "payable": false,
      "stateMutability": "view",
      "type": "function",
      "signature": "0xf8b2cb4f"
    },
    {
      "inputs": [],
      "payable": false,
      "stateMutability": "nonpayable",
      "type": "constructor",
      "signature": "constructor"
    },
    {
      "anonymous": false,
      "inputs": [
        {
          "indexed": true,
          "name": "_from",
          "type": "address"
        },
        {
          "indexed": true,
          "name": "_to",
          "type": "address"
        },
        {
          "indexed": false,
          "name": "_value",
          "type": "uint256"
        }
      ],
      "name": "Transfer",
      "type": "event",
      "signature": "0xddf252ad1be2c89b69c2b068fc378daa952ba7f163c4a11628f55a4df523b3ef"
    }
  ],
  "bytecode": "0x608060405234801561001057600080fd5b506127106000803373ffffffffffffffffffffffffffffffffffffffff1673ffffffffffffffffffffffffffffffffffffffff16815260200190815260200160002081905550611fb4806100656000396000f3fe6080604052600436106100ba576000357c0100000000000000000000000000000000000000000000000000000000900463ffffffff168063096f646d146100bf57806328e0f0b61461010e5780632ef00ac21461016b5780633d622666146102555780634e525e401461037157806359c38be81461045b57806390b98a111461053b578063c7093f99146105ae578063d2fdc59c14610613578063dd7d9b7e14610750578063f1f22365146107a3578063f8b2cb4f14610897575b600080fd5b3480156100cb57600080fd5b506100f8600480360360208110156100e257600080fd5b81019080803590602001909291905050506108fc565b6040518082815260200191505060405180910390f35b34801561011a57600080fd5b506101516004803603604081101561013157600080fd5b81019080803590602001909291908035906020019092919050505061091f565b604051808215151515815260200191505060405180910390f35b34801561017757600080fd5b5061023b6004803603604081101561018e57600080fd5b8101908080359060200190929190803590602001906401000000008111156101b557600080fd5b8201836020820111156101c757600080fd5b803590602001918460018302840111640100000000831117156101e957600080fd5b91908080601f016020809104026020016040519081016040528093929190818152602001838380828437600081840152601f19601f8201169050808301925050505050505091929192905050506109b7565b604051808215151515815260200191505060405180910390f35b34801561026157600080fd5b506102986004803603604081101561027857600080fd5b810190808035906020019092919080359060200190929190505050610d39565b604051808881526020018781526020018673ffffffffffffffffffffffffffffffffffffffff1673ffffffffffffffffffffffffffffffffffffffff168152602001858152602001806020018415151515815260200183151515158152602001828103825285818151815260200191508051906020019080838360005b83811015610330578082015181840152602081019050610315565b50505050905090810190601f16801561035d5780820380516001836020036101000a031916815260200191505b509850505050505050505060405180910390f35b34801561037d57600080fd5b506104416004803603604081101561039457600080fd5b8101908080359060200190929190803590602001906401000000008111156103bb57600080fd5b8201836020820111156103cd57600080fd5b803590602001918460018302840111640100000000831117156103ef57600080fd5b91908080601f016020809104026020016040519081016040528093929190818152602001838380828437600081840152601f19601f820116905080830192505050505050509192919290505050610fba565b604051808215151515815260200191505060405180910390f35b34801561046757600080fd5b506105216004803603602081101561047e57600080fd5b810190808035906020019064010000000081111561049b57600080fd5b8201836020820111156104ad57600080fd5b803590602001918460018302840111640100000000831117156104cf57600080fd5b91908080601f016020809104026020016040519081016040528093929190818152602001838380828437600081840152601f19601f820116905080830192505050505050509192919290505050611207565b604051808215151515815260200191505060405180910390f35b34801561054757600080fd5b506105946004803603604081101561055e57600080fd5b81019080803573ffffffffffffffffffffffffffffffffffffffff169060200190929190803590602001909291905050506114d5565b604051808215151515815260200191505060405180910390f35b3480156105ba57600080fd5b506105fd600480360360208110156105d157600080fd5b81019080803573ffffffffffffffffffffffffffffffffffffffff16906020019092919050505061162e565b6040518082815260200191505060405180910390f35b34801561061f57600080fd5b5061066c6004803603604081101561063657600080fd5b81019080803573ffffffffffffffffffffffffffffffffffffffff1690602001909291908035906020019092919050505061167d565b604051808981526020018881526020018773ffffffffffffffffffffffffffffffffffffffff1673ffffffffffffffffffffffffffffffffffffffff16815260200186815260200180602001851515151581526020018415151515815260200183151515158152602001828103825286818151815260200191508051906020019080838360005b8381101561070e5780820151818401526020810190506106f3565b50505050905090810190601f16801561073b5780820380516001836020036101000a031916815260200191505b50995050505050505050505060405180910390f35b34801561075c57600080fd5b506107896004803603602081101561077357600080fd5b8101908080359060200190929190505050611986565b604051808215151515815260200191505060405180910390f35b3480156107af57600080fd5b5061087d600480360360608110156107c657600080fd5b810190808035906020019092919080359060200190929190803590602001906401000000008111156107f757600080fd5b82018360208201111561080957600080fd5b8035906020019184600183028401116401000000008311171561082b57600080fd5b91908080601f016020809104026020016040519081016040528093929190818152602001838380828437600081840152601f19601f820116905080830192505050505050509192919290505050611a60565b604051808215151515815260200191505060405180910390f35b3480156108a357600080fd5b506108e6600480360360208110156108ba57600080fd5b81019080803573ffffffffffffffffffffffffffffffffffffffff169060200190929190505050611d4f565b6040518082815260200191505060405180910390f35b600060026000838152602001908152602001600020600001805490509050919050565b60006002600084815260200190815260200160002050600260008481526020019081526020016000206000018054905082111561095f57600090506109b1565b6001600260008581526020019081526020016000206000018381548110151561098457fe5b906000526020600020906006020160050160016101000a81548160ff021916908315150217905550600190505b92915050565b60006109c282611d97565b15156109d15760009050610d33565b6109d9611dc7565b600160003373ffffffffffffffffffffffffffffffffffffffff1673ffffffffffffffffffffffffffffffffffffffff16815260200190815260200160002060000184815481101515610a2857fe5b9060005260206000209060060201610100604051908101604052908160008201548152602001600182015481526020016002820160009054906101000a900473ffffffffffffffffffffffffffffffffffffffff1673ffffffffffffffffffffffffffffffffffffffff1673ffffffffffffffffffffffffffffffffffffffff168152602001600382015481526020016004820160206040519081016040529081600082018054600181600116156101000203166002900480601f016020809104026020016040519081016040528092919081815260200182805460018160011615610100020316600290048015610b615780601f10610b3657610100808354040283529160200191610b61565b820191906000526020600020905b815481529060010190602001808311610b4457829003601f168201915b50505050508152505081526020016005820160009054906101000a900460ff161515151581526020016005820160019054906101000a900460ff161515151581526020016005820160029054906101000a900460ff16151515158152505090508281608001516000018190525060018160c001901515908115158152505080600160003373ffffffffffffffffffffffffffffffffffffffff1673ffffffffffffffffffffffffffffffffffffffff16815260200190815260200160002060000185815481101515610c2f57fe5b9060005260206000209060060201600082015181600001556020820151816001015560408201518160020160006101000a81548173ffffffffffffffffffffffffffffffffffffffff021916908373ffffffffffffffffffffffffffffffffffffffff160217905550606082015181600301556080820151816004016000820151816000019080519060200190610cc7929190611e32565b50505060a08201518160050160006101000a81548160ff02191690831515021790555060c08201518160050160016101000a81548160ff02191690831515021790555060e08201518160050160026101000a81548160ff02191690831515021790555090505060019150505b92915050565b6000806000806060600080610d4c611eb2565b600260008b815260200190815260200160002060000189815481101515610d6f57fe5b906000526020600020906006020160e0604051908101604052908160008201548152602001600182015481526020016002820160009054906101000a900473ffffffffffffffffffffffffffffffffffffffff1673ffffffffffffffffffffffffffffffffffffffff1673ffffffffffffffffffffffffffffffffffffffff168152602001600382015481526020016004820160206040519081016040529081600082018054600181600116156101000203166002900480601f016020809104026020016040519081016040528092919081815260200182805460018160011615610100020316600290048015610ea75780601f10610e7c57610100808354040283529160200191610ea7565b820191906000526020600020905b815481529060010190602001808311610e8a57829003601f168201915b50505050508152505081526020016005820160009054906101000a900460ff161515151581526020016005820160019054906101000a900460ff1615151515815250509050600260008b81526020019081526020016000206000018054905089101580610f1557508060c001515b15610f74576000806001026000806040805190810160405280601981526020017f4e6f205265706c69657320746f2074686973205477656564210000000000000081525060006001849450975097509750975097509750975050610fae565b80600001518160200151826040015183606001518460800151600001518560a001518660c001518292509750975097509750975097509750505b92959891949750929550565b6000610fc582611d97565b1515610fd45760009050611201565b610fdc611f13565b602060405190810160405280848152509050600084846040516020018083815260200182805190602001908083835b602083101515611030578051825260208201915060208101905060208303925061100b565b6001836020036101000a03801982511681845116808217855250505050505090500192505050604051602081830303815290604052805190602001209050600060026000878152602001908152602001600020600001805490509050611094611eb2565b60e0604051908101604052808381526020018481526020013373ffffffffffffffffffffffffffffffffffffffff168152602001428152602001858152602001600015158152602001600015158152509050600260008881526020019081526020016000206000018190806001815401808255809150509060018203906000526020600020906006020160009091929091909150600082015181600001556020820151816001015560408201518160020160006101000a81548173ffffffffffffffffffffffffffffffffffffffff021916908373ffffffffffffffffffffffffffffffffffffffff1602179055506060820151816003015560808201518160040160008201518160000190805190602001906111b2929190611e32565b50505060a08201518160050160006101000a81548160ff02191690831515021790555060c08201518160050160016101000a81548160ff02191690831515021790555050505060019450505050505b92915050565b600061121282611d97565b151561122157600090506114d0565b611229611f27565b6020604051908101604052808481525090506000600160003373ffffffffffffffffffffffffffffffffffffffff1673ffffffffffffffffffffffffffffffffffffffff168152602001908152602001600020600001805490509050600081856040516020018083815260200182805190602001908083835b6020831015156112c757805182526020820191506020810190506020830392506112a2565b6001836020036101000a0380198251168184511680821785525050505050509050019250505060405160208183030381529060405280519060200120905061130d611dc7565b610100604051908101604052808481526020018381526020013373ffffffffffffffffffffffffffffffffffffffff168152602001428152602001858152602001600015158152602001600015158152602001600015158152509050600160003373ffffffffffffffffffffffffffffffffffffffff1673ffffffffffffffffffffffffffffffffffffffff1681526020019081526020016000206000018190806001815401808255809150509060018203906000526020600020906006020160009091929091909150600082015181600001556020820151816001015560408201518160020160006101000a81548173ffffffffffffffffffffffffffffffffffffffff021916908373ffffffffffffffffffffffffffffffffffffffff160217905550606082015181600301556080820151816004016000820151816000019080519060200190611461929190611e32565b50505060a08201518160050160006101000a81548160ff02191690831515021790555060c08201518160050160016101000a81548160ff02191690831515021790555060e08201518160050160026101000a81548160ff02191690831515021790555050505060019450505050505b919050565b6000816000803373ffffffffffffffffffffffffffffffffffffffff1673ffffffffffffffffffffffffffffffffffffffff1681526020019081526020016000205410156115265760009050611628565b816000803373ffffffffffffffffffffffffffffffffffffffff1673ffffffffffffffffffffffffffffffffffffffff16815260200190815260200160002060008282540392505081905550816000808573ffffffffffffffffffffffffffffffffffffffff1673ffffffffffffffffffffffffffffffffffffffff168152602001908152602001600020600082825401925050819055508273ffffffffffffffffffffffffffffffffffffffff163373ffffffffffffffffffffffffffffffffffffffff167fddf252ad1be2c89b69c2b068fc378daa952ba7f163c4a11628f55a4df523b3ef846040518082815260200191505060405180910390a3600190505b92915050565b6000600160008373ffffffffffffffffffffffffffffffffffffffff1673ffffffffffffffffffffffffffffffffffffffff168152602001908152602001600020600001805490509050919050565b60008060008060606000806000611692611dc7565b600160008c73ffffffffffffffffffffffffffffffffffffffff1673ffffffffffffffffffffffffffffffffffffffff1681526020019081526020016000206000018a8154811015156116e157fe5b9060005260206000209060060201610100604051908101604052908160008201548152602001600182015481526020016002820160009054906101000a900473ffffffffffffffffffffffffffffffffffffffff1673ffffffffffffffffffffffffffffffffffffffff1673ffffffffffffffffffffffffffffffffffffffff168152602001600382015481526020016004820160206040519081016040529081600082018054600181600116156101000203166002900480601f01602080910402602001604051908101604052809291908181526020018280546001816001161561010002031660029004801561181a5780601f106117ef5761010080835404028352916020019161181a565b820191906000526020600020905b8154815290600101906020018083116117fd57829003601f168201915b50505050508152505081526020016005820160009054906101000a900460ff161515151581526020016005820160019054906101000a900460ff161515151581526020016005820160029054906101000a900460ff1615151515815250509050600160008c73ffffffffffffffffffffffffffffffffffffffff1673ffffffffffffffffffffffffffffffffffffffff168152602001908152602001600020600001805490508a1015806118d65750600115158160e001511515145b15611938576000806001026000806040805190810160405280601a81526020017f4e6f20547765656473206f6e2074686973204163636f756e742100000000000081525060008060018595509850985098509850985098509850985050611979565b80600001518160200151826040015183606001518460800151600001518560a001518660c001518760e0015183935098509850985098509850985098509850505b9295985092959890939650565b6000600160003373ffffffffffffffffffffffffffffffffffffffff1673ffffffffffffffffffffffffffffffffffffffff168152602001908152602001600020600001805490508211156119de5760009050611a5b565b60018060003373ffffffffffffffffffffffffffffffffffffffff1673ffffffffffffffffffffffffffffffffffffffff16815260200190815260200160002060000183815481101515611a2e57fe5b906000526020600020906006020160050160026101000a81548160ff021916908315150217905550600190505b919050565b6000611a6b82611d97565b1515611a7a5760009050611d48565b611a82611eb2565b6002600086815260200190815260200160002060000184815481101515611aa557fe5b906000526020600020906006020160e0604051908101604052908160008201548152602001600182015481526020016002820160009054906101000a900473ffffffffffffffffffffffffffffffffffffffff1673ffffffffffffffffffffffffffffffffffffffff1673ffffffffffffffffffffffffffffffffffffffff168152602001600382015481526020016004820160206040519081016040529081600082018054600181600116156101000203166002900480601f016020809104026020016040519081016040528092919081815260200182805460018160011615610100020316600290048015611bdd5780601f10611bb257610100808354040283529160200191611bdd565b820191906000526020600020905b815481529060010190602001808311611bc057829003601f168201915b50505050508152505081526020016005820160009054906101000a900460ff161515151581526020016005820160019054906101000a900460ff16151515158152505090508281608001516000018190525060018160a0019015159081151581525050806002600087815260200190815260200160002060000185815481101515611c6457fe5b9060005260206000209060060201600082015181600001556020820151816001015560408201518160020160006101000a81548173ffffffffffffffffffffffffffffffffffffffff021916908373ffffffffffffffffffffffffffffffffffffffff160217905550606082015181600301556080820151816004016000820151816000019080519060200190611cfc929190611e32565b50505060a08201518160050160006101000a81548160ff02191690831515021790555060c08201518160050160016101000a81548160ff02191690831515021790555090505060019150505b9392505050565b60008060008373ffffffffffffffffffffffffffffffffffffffff1673ffffffffffffffffffffffffffffffffffffffff168152602001908152602001600020549050919050565b6000808251905060b4811180611dad5750600081145b15611dbc576000915050611dc2565b60019150505b919050565b610100604051908101604052806000815260200160008019168152602001600073ffffffffffffffffffffffffffffffffffffffff16815260200160008152602001611e11611f3b565b81526020016000151581526020016000151581526020016000151581525090565b828054600181600116156101000203166002900490600052602060002090601f016020900481019282601f10611e7357805160ff1916838001178555611ea1565b82800160010185558215611ea1579182015b82811115611ea0578251825591602001919060010190611e85565b5b509050611eae9190611f4f565b5090565b60e0604051908101604052806000815260200160008019168152602001600073ffffffffffffffffffffffffffffffffffffffff16815260200160008152602001611efb611f74565b81526020016000151581526020016000151581525090565b602060405190810160405280606081525090565b602060405190810160405280606081525090565b602060405190810160405280606081525090565b611f7191905b80821115611f6d576000816000905550600101611f55565b5090565b90565b60206040519081016040528060608152509056fea165627a7a723058206c7bf83a0a83aba529185b1156ca417515d6a59f6cec0bfbfa9957f1d2fb6deb0029",
  "source": "pragma solidity >=0.4.25 <0.6.0;\n\nimport \"./TweederCore.sol\";\nimport \"./TweederCoin.sol\";\n\ncontract Tweeder is TweederCoin, TweederCore{\n    event Transfer(address indexed _from, address indexed _to, uint256 _value);\n    constructor() public {\n\n    }\n\n}\n",
  "sourcePath": "/Users/mock/Documents/self/ethereum/Tweeder/TweederEth/contracts/Tweeder.sol",
  "compiler": {
    "name": "solc",
    "version": "0.5.0+commit.1d4f565a.Emscripten.clang"
  },
  "schemaVersion": "3.0.1",
  "updatedAt": "2019-02-11T00:14:35.385Z",
  "devdoc": {
    "methods": {}
  },
  "userdoc": {
    "methods": {}
  }
}