{
  "contractName": "TweederCore",
  "abi": [
    {
      "inputs": [],
      "payable": false,
      "stateMutability": "nonpayable",
      "type": "constructor",
      "signature": "constructor"
    },
    {
      "anonymous": false,
      "inputs": [
        {
          "indexed": true,
          "name": "_from",
          "type": "address"
        },
        {
          "indexed": true,
          "name": "_to",
          "type": "address"
        },
        {
          "indexed": false,
          "name": "_value",
          "type": "uint256"
        }
      ],
      "name": "Transfer",
      "type": "event",
      "signature": "0xddf252ad1be2c89b69c2b068fc378daa952ba7f163c4a11628f55a4df523b3ef"
    },
    {
      "constant": false,
      "inputs": [
        {
          "name": "receivedContent",
          "type": "string"
        }
      ],
      "name": "postTweed",
      "outputs": [
        {
          "name": "",
          "type": "bool"
        }
      ],
      "payable": false,
      "stateMutability": "nonpayable",
      "type": "function",
      "signature": "0x59c38be8"
    },
    {
      "constant": true,
      "inputs": [
        {
          "name": "userAddress",
          "type": "address"
        },
        {
          "name": "tweedIndex",
          "type": "uint256"
        }
      ],
      "name": "getTweed",
      "outputs": [
        {
          "name": "id",
          "type": "uint256"
        },
        {
          "name": "uuid",
          "type": "bytes32"
        },
        {
          "name": "user",
          "type": "address"
        },
        {
          "name": "date",
          "type": "uint256"
        },
        {
          "name": "text",
          "type": "string"
        },
        {
          "name": "retweet",
          "type": "bool"
        },
        {
          "name": "edited",
          "type": "bool"
        },
        {
          "name": "hidden",
          "type": "bool"
        }
      ],
      "payable": false,
      "stateMutability": "view",
      "type": "function",
      "signature": "0xd2fdc59c"
    },
    {
      "constant": false,
      "inputs": [
        {
          "name": "tweedIndex",
          "type": "uint256"
        },
        {
          "name": "newContent",
          "type": "string"
        }
      ],
      "name": "editTweed",
      "outputs": [
        {
          "name": "",
          "type": "bool"
        }
      ],
      "payable": false,
      "stateMutability": "nonpayable",
      "type": "function",
      "signature": "0x2ef00ac2"
    },
    {
      "constant": false,
      "inputs": [
        {
          "name": "tweedIndex",
          "type": "uint256"
        }
      ],
      "name": "deleteTweed",
      "outputs": [
        {
          "name": "",
          "type": "bool"
        }
      ],
      "payable": false,
      "stateMutability": "nonpayable",
      "type": "function",
      "signature": "0xdd7d9b7e"
    },
    {
      "constant": false,
      "inputs": [
        {
          "name": "tweedUUID",
          "type": "bytes32"
        },
        {
          "name": "replyContent",
          "type": "string"
        }
      ],
      "name": "postReply",
      "outputs": [
        {
          "name": "",
          "type": "bool"
        }
      ],
      "payable": false,
      "stateMutability": "nonpayable",
      "type": "function",
      "signature": "0x4e525e40"
    },
    {
      "constant": true,
      "inputs": [
        {
          "name": "tweedUUID",
          "type": "bytes32"
        },
        {
          "name": "replyIndex",
          "type": "uint256"
        }
      ],
      "name": "getReply",
      "outputs": [
        {
          "name": "id",
          "type": "uint256"
        },
        {
          "name": "uuid",
          "type": "bytes32"
        },
        {
          "name": "userAdress",
          "type": "address"
        },
        {
          "name": "date",
          "type": "uint256"
        },
        {
          "name": "text",
          "type": "string"
        },
        {
          "name": "edited",
          "type": "bool"
        },
        {
          "name": "hidden",
          "type": "bool"
        }
      ],
      "payable": false,
      "stateMutability": "view",
      "type": "function",
      "signature": "0x3d622666"
    },
    {
      "constant": false,
      "inputs": [
        {
          "name": "tweedUUID",
          "type": "bytes32"
        },
        {
          "name": "replyIndex",
          "type": "uint256"
        },
        {
          "name": "newContent",
          "type": "string"
        }
      ],
      "name": "editRelpy",
      "outputs": [
        {
          "name": "",
          "type": "bool"
        }
      ],
      "payable": false,
      "stateMutability": "nonpayable",
      "type": "function",
      "signature": "0xf1f22365"
    },
    {
      "constant": false,
      "inputs": [
        {
          "name": "tweedUUID",
          "type": "bytes32"
        },
        {
          "name": "replyIndex",
          "type": "uint256"
        }
      ],
      "name": "deleteReply",
      "outputs": [
        {
          "name": "",
          "type": "bool"
        }
      ],
      "payable": false,
      "stateMutability": "nonpayable",
      "type": "function",
      "signature": "0x28e0f0b6"
    },
    {
      "constant": true,
      "inputs": [
        {
          "name": "user",
          "type": "address"
        }
      ],
      "name": "getTweedsCount",
      "outputs": [
        {
          "name": "",
          "type": "uint256"
        }
      ],
      "payable": false,
      "stateMutability": "view",
      "type": "function",
      "signature": "0xc7093f99"
    },
    {
      "constant": true,
      "inputs": [
        {
          "name": "tweedUUID",
          "type": "bytes32"
        }
      ],
      "name": "getRepliesCount",
      "outputs": [
        {
          "name": "",
          "type": "uint256"
        }
      ],
      "payable": false,
      "stateMutability": "view",
      "type": "function",
      "signature": "0x096f646d"
    }
  ],
  "bytecode": "0x608060405234801561001057600080fd5b50611d1b806100206000396000f3fe6080604052600436106100a4576000357c0100000000000000000000000000000000000000000000000000000000900463ffffffff168063096f646d146100a957806328e0f0b6146100f85780632ef00ac2146101555780633d6226661461023f5780634e525e401461035b57806359c38be814610445578063c7093f9914610525578063d2fdc59c1461058a578063dd7d9b7e146106c7578063f1f223651461071a575b600080fd5b3480156100b557600080fd5b506100e2600480360360208110156100cc57600080fd5b810190808035906020019092919050505061080e565b6040518082815260200191505060405180910390f35b34801561010457600080fd5b5061013b6004803603604081101561011b57600080fd5b810190808035906020019092919080359060200190929190505050610831565b604051808215151515815260200191505060405180910390f35b34801561016157600080fd5b506102256004803603604081101561017857600080fd5b81019080803590602001909291908035906020019064010000000081111561019f57600080fd5b8201836020820111156101b157600080fd5b803590602001918460018302840111640100000000831117156101d357600080fd5b91908080601f016020809104026020016040519081016040528093929190818152602001838380828437600081840152601f19601f8201169050808301925050505050505091929192905050506108c8565b604051808215151515815260200191505060405180910390f35b34801561024b57600080fd5b506102826004803603604081101561026257600080fd5b810190808035906020019092919080359060200190929190505050610c48565b604051808881526020018781526020018673ffffffffffffffffffffffffffffffffffffffff1673ffffffffffffffffffffffffffffffffffffffff168152602001858152602001806020018415151515815260200183151515158152602001828103825285818151815260200191508051906020019080838360005b8381101561031a5780820151818401526020810190506102ff565b50505050905090810190601f1680156103475780820380516001836020036101000a031916815260200191505b509850505050505050505060405180910390f35b34801561036757600080fd5b5061042b6004803603604081101561037e57600080fd5b8101908080359060200190929190803590602001906401000000008111156103a557600080fd5b8201836020820111156103b757600080fd5b803590602001918460018302840111640100000000831117156103d957600080fd5b91908080601f016020809104026020016040519081016040528093929190818152602001838380828437600081840152601f19601f820116905080830192505050505050509192919290505050610ec8565b604051808215151515815260200191505060405180910390f35b34801561045157600080fd5b5061050b6004803603602081101561046857600080fd5b810190808035906020019064010000000081111561048557600080fd5b82018360208201111561049757600080fd5b803590602001918460018302840111640100000000831117156104b957600080fd5b91908080601f016020809104026020016040519081016040528093929190818152602001838380828437600081840152601f19601f820116905080830192505050505050509192919290505050611115565b604051808215151515815260200191505060405180910390f35b34801561053157600080fd5b506105746004803603602081101561054857600080fd5b81019080803573ffffffffffffffffffffffffffffffffffffffff1690602001909291905050506113e1565b6040518082815260200191505060405180910390f35b34801561059657600080fd5b506105e3600480360360408110156105ad57600080fd5b81019080803573ffffffffffffffffffffffffffffffffffffffff1690602001909291908035906020019092919050505061142f565b604051808981526020018881526020018773ffffffffffffffffffffffffffffffffffffffff1673ffffffffffffffffffffffffffffffffffffffff16815260200186815260200180602001851515151581526020018415151515815260200183151515158152602001828103825286818151815260200191508051906020019080838360005b8381101561068557808201518184015260208101905061066a565b50505050905090810190601f1680156106b25780820380516001836020036101000a031916815260200191505b50995050505050505050505060405180910390f35b3480156106d357600080fd5b50610700600480360360208110156106ea57600080fd5b8101908080359060200190929190505050611736565b604051808215151515815260200191505060405180910390f35b34801561072657600080fd5b506107f46004803603606081101561073d57600080fd5b8101908080359060200190929190803590602001909291908035906020019064010000000081111561076e57600080fd5b82018360208201111561078057600080fd5b803590602001918460018302840111640100000000831117156107a257600080fd5b91908080601f016020809104026020016040519081016040528093929190818152602001838380828437600081840152601f19601f82011690508083019250505050505050919291929050505061180f565b604051808215151515815260200191505060405180910390f35b600060016000838152602001908152602001600020600001805490509050919050565b60006001600084815260200190815260200160002050600160008481526020019081526020016000206000018054905082111561087157600090506108c2565b60018060008581526020019081526020016000206000018381548110151561089557fe5b906000526020600020906006020160050160016101000a81548160ff021916908315150217905550600190505b92915050565b60006108d382611afe565b15156108e25760009050610c42565b6108ea611b2e565b6000803373ffffffffffffffffffffffffffffffffffffffff1673ffffffffffffffffffffffffffffffffffffffff1681526020019081526020016000206000018481548110151561093857fe5b9060005260206000209060060201610100604051908101604052908160008201548152602001600182015481526020016002820160009054906101000a900473ffffffffffffffffffffffffffffffffffffffff1673ffffffffffffffffffffffffffffffffffffffff1673ffffffffffffffffffffffffffffffffffffffff168152602001600382015481526020016004820160206040519081016040529081600082018054600181600116156101000203166002900480601f016020809104026020016040519081016040528092919081815260200182805460018160011615610100020316600290048015610a715780601f10610a4657610100808354040283529160200191610a71565b820191906000526020600020905b815481529060010190602001808311610a5457829003601f168201915b50505050508152505081526020016005820160009054906101000a900460ff161515151581526020016005820160019054906101000a900460ff161515151581526020016005820160029054906101000a900460ff16151515158152505090508281608001516000018190525060018160c0019015159081151581525050806000803373ffffffffffffffffffffffffffffffffffffffff1673ffffffffffffffffffffffffffffffffffffffff16815260200190815260200160002060000185815481101515610b3e57fe5b9060005260206000209060060201600082015181600001556020820151816001015560408201518160020160006101000a81548173ffffffffffffffffffffffffffffffffffffffff021916908373ffffffffffffffffffffffffffffffffffffffff160217905550606082015181600301556080820151816004016000820151816000019080519060200190610bd6929190611b99565b50505060a08201518160050160006101000a81548160ff02191690831515021790555060c08201518160050160016101000a81548160ff02191690831515021790555060e08201518160050160026101000a81548160ff02191690831515021790555090505060019150505b92915050565b6000806000806060600080610c5b611c19565b600160008b815260200190815260200160002060000189815481101515610c7e57fe5b906000526020600020906006020160e0604051908101604052908160008201548152602001600182015481526020016002820160009054906101000a900473ffffffffffffffffffffffffffffffffffffffff1673ffffffffffffffffffffffffffffffffffffffff1673ffffffffffffffffffffffffffffffffffffffff168152602001600382015481526020016004820160206040519081016040529081600082018054600181600116156101000203166002900480601f016020809104026020016040519081016040528092919081815260200182805460018160011615610100020316600290048015610db65780601f10610d8b57610100808354040283529160200191610db6565b820191906000526020600020905b815481529060010190602001808311610d9957829003601f168201915b50505050508152505081526020016005820160009054906101000a900460ff161515151581526020016005820160019054906101000a900460ff1615151515815250509050600160008b81526020019081526020016000206000018054905089101580610e2457508060c001515b15610e82576000806001026000806040805190810160405280601981526020017f4e6f205265706c69657320746f20746869732054776565642100000000000000815250600080849450975097509750975097509750975050610ebc565b80600001518160200151826040015183606001518460800151600001518560a001518660c001518292509750975097509750975097509750505b92959891949750929550565b6000610ed382611afe565b1515610ee2576000905061110f565b610eea611c7a565b602060405190810160405280848152509050600084846040516020018083815260200182805190602001908083835b602083101515610f3e5780518252602082019150602081019050602083039250610f19565b6001836020036101000a03801982511681845116808217855250505050505090500192505050604051602081830303815290604052805190602001209050600060016000878152602001908152602001600020600001805490509050610fa2611c19565b60e0604051908101604052808381526020018481526020013373ffffffffffffffffffffffffffffffffffffffff168152602001428152602001858152602001600015158152602001600015158152509050600160008881526020019081526020016000206000018190806001815401808255809150509060018203906000526020600020906006020160009091929091909150600082015181600001556020820151816001015560408201518160020160006101000a81548173ffffffffffffffffffffffffffffffffffffffff021916908373ffffffffffffffffffffffffffffffffffffffff1602179055506060820151816003015560808201518160040160008201518160000190805190602001906110c0929190611b99565b50505060a08201518160050160006101000a81548160ff02191690831515021790555060c08201518160050160016101000a81548160ff02191690831515021790555050505060019450505050505b92915050565b600061112082611afe565b151561112f57600090506113dc565b611137611c8e565b60206040519081016040528084815250905060008060003373ffffffffffffffffffffffffffffffffffffffff1673ffffffffffffffffffffffffffffffffffffffff168152602001908152602001600020600001805490509050600081856040516020018083815260200182805190602001908083835b6020831015156111d457805182526020820191506020810190506020830392506111af565b6001836020036101000a0380198251168184511680821785525050505050509050019250505060405160208183030381529060405280519060200120905061121a611b2e565b610100604051908101604052808481526020018381526020013373ffffffffffffffffffffffffffffffffffffffff1681526020014281526020018581526020016000151581526020016000151581526020016000151581525090506000803373ffffffffffffffffffffffffffffffffffffffff1673ffffffffffffffffffffffffffffffffffffffff1681526020019081526020016000206000018190806001815401808255809150509060018203906000526020600020906006020160009091929091909150600082015181600001556020820151816001015560408201518160020160006101000a81548173ffffffffffffffffffffffffffffffffffffffff021916908373ffffffffffffffffffffffffffffffffffffffff16021790555060608201518160030155608082015181600401600082015181600001908051906020019061136d929190611b99565b50505060a08201518160050160006101000a81548160ff02191690831515021790555060c08201518160050160016101000a81548160ff02191690831515021790555060e08201518160050160026101000a81548160ff02191690831515021790555050505060019450505050505b919050565b60008060008373ffffffffffffffffffffffffffffffffffffffff1673ffffffffffffffffffffffffffffffffffffffff168152602001908152602001600020600001805490509050919050565b60008060008060606000806000611444611b2e565b6000808c73ffffffffffffffffffffffffffffffffffffffff1673ffffffffffffffffffffffffffffffffffffffff1681526020019081526020016000206000018a81548110151561149257fe5b9060005260206000209060060201610100604051908101604052908160008201548152602001600182015481526020016002820160009054906101000a900473ffffffffffffffffffffffffffffffffffffffff1673ffffffffffffffffffffffffffffffffffffffff1673ffffffffffffffffffffffffffffffffffffffff168152602001600382015481526020016004820160206040519081016040529081600082018054600181600116156101000203166002900480601f0160208091040260200160405190810160405280929190818152602001828054600181600116156101000203166002900480156115cb5780601f106115a0576101008083540402835291602001916115cb565b820191906000526020600020905b8154815290600101906020018083116115ae57829003601f168201915b50505050508152505081526020016005820160009054906101000a900460ff161515151581526020016005820160019054906101000a900460ff161515151581526020016005820160029054906101000a900460ff16151515158152505090506000808c73ffffffffffffffffffffffffffffffffffffffff1673ffffffffffffffffffffffffffffffffffffffff168152602001908152602001600020600001805490508a1015806116865750600115158160e001511515145b156116e8576000806001026000806040805190810160405280601a81526020017f4e6f20547765656473206f6e2074686973204163636f756e742100000000000081525060008060008595509850985098509850985098509850985050611729565b80600001518160200151826040015183606001518460800151600001518560a001518660c001518760e0015183935098509850985098509850985098509850505b9295985092959890939650565b60008060003373ffffffffffffffffffffffffffffffffffffffff1673ffffffffffffffffffffffffffffffffffffffff1681526020019081526020016000206000018054905082111561178d576000905061180a565b60016000803373ffffffffffffffffffffffffffffffffffffffff1673ffffffffffffffffffffffffffffffffffffffff168152602001908152602001600020600001838154811015156117dd57fe5b906000526020600020906006020160050160026101000a81548160ff021916908315150217905550600190505b919050565b600061181a82611afe565b15156118295760009050611af7565b611831611c19565b600160008681526020019081526020016000206000018481548110151561185457fe5b906000526020600020906006020160e0604051908101604052908160008201548152602001600182015481526020016002820160009054906101000a900473ffffffffffffffffffffffffffffffffffffffff1673ffffffffffffffffffffffffffffffffffffffff1673ffffffffffffffffffffffffffffffffffffffff168152602001600382015481526020016004820160206040519081016040529081600082018054600181600116156101000203166002900480601f01602080910402602001604051908101604052809291908181526020018280546001816001161561010002031660029004801561198c5780601f106119615761010080835404028352916020019161198c565b820191906000526020600020905b81548152906001019060200180831161196f57829003601f168201915b50505050508152505081526020016005820160009054906101000a900460ff161515151581526020016005820160019054906101000a900460ff16151515158152505090508281608001516000018190525060018160a0019015159081151581525050806001600087815260200190815260200160002060000185815481101515611a1357fe5b9060005260206000209060060201600082015181600001556020820151816001015560408201518160020160006101000a81548173ffffffffffffffffffffffffffffffffffffffff021916908373ffffffffffffffffffffffffffffffffffffffff160217905550606082015181600301556080820151816004016000820151816000019080519060200190611aab929190611b99565b50505060a08201518160050160006101000a81548160ff02191690831515021790555060c08201518160050160016101000a81548160ff02191690831515021790555090505060019150505b9392505050565b6000808251905060b4811180611b145750600081145b15611b23576000915050611b29565b60019150505b919050565b610100604051908101604052806000815260200160008019168152602001600073ffffffffffffffffffffffffffffffffffffffff16815260200160008152602001611b78611ca2565b81526020016000151581526020016000151581526020016000151581525090565b828054600181600116156101000203166002900490600052602060002090601f016020900481019282601f10611bda57805160ff1916838001178555611c08565b82800160010185558215611c08579182015b82811115611c07578251825591602001919060010190611bec565b5b509050611c159190611cb6565b5090565b60e0604051908101604052806000815260200160008019168152602001600073ffffffffffffffffffffffffffffffffffffffff16815260200160008152602001611c62611cdb565b81526020016000151581526020016000151581525090565b602060405190810160405280606081525090565b602060405190810160405280606081525090565b602060405190810160405280606081525090565b611cd891905b80821115611cd4576000816000905550600101611cbc565b5090565b90565b60206040519081016040528060608152509056fea165627a7a72305820cdbdba92acf30ad19c322abf0a4aec2fe71f6621d30939f88d86c65086c9b3a00029",
  "source": "pragma solidity >=0.4.25 <0.6.0;\n// pragma experimental ABIEncoderV2;\ncontract TweederCore {\n    // address => tweeds \n    mapping (address => TweederTypes.Tweeds) userTweedMap;\n    // uuid => replies\n    mapping (bytes32 => TweederTypes.TweedReplies) tweedRepliesMap;\n    event Transfer(address indexed _from, address indexed _to, uint256 _value);\n\n    constructor() public {\n    }\n\n    function postTweed(string memory receivedContent) public returns(bool) {\n        if(!TweederCoreUtils.isContentValid(receivedContent)) return false;\n\n        TweederTypes.TweedContent memory tweedContent = TweederTypes.TweedContent(receivedContent);\n        uint tweedID = userTweedMap[msg.sender].tweeds.length;\n        bytes32 tweedUUID = keccak256(abi.encodePacked(tweedID, receivedContent));\n\n        TweederTypes.Tweed memory tweed = TweederTypes.Tweed(tweedID, \n            tweedUUID, msg.sender, block.timestamp, tweedContent, false, false, false);\n        userTweedMap[msg.sender].tweeds.push(tweed);\n        return true;\n    }\n\n    function getTweed(address userAddress, uint tweedIndex) public view returns(\n        uint id, bytes32 uuid, address user, uint date, string memory text, bool retweet, bool edited, bool hidden){\n        TweederTypes.Tweed memory tweed = userTweedMap[userAddress].tweeds[tweedIndex];\n        if(tweedIndex >= userTweedMap[userAddress].tweeds.length || tweed.hidden == true)\n            return (uint(0), bytes32(0), address(0), uint(0), string(\"No Tweeds on this Account!\"), false, false, false);\n        return (\n        tweed.id, tweed.uuid, tweed.user, tweed.date, tweed.content.text, tweed.retweet, tweed.edited, tweed.hidden\n        ); \n    }\n\n    function editTweed(uint tweedIndex, string memory newContent) public returns(bool) {\n        if(!TweederCoreUtils.isContentValid(newContent)) return false;\n\n        TweederTypes.Tweed memory editedTweed = userTweedMap[msg.sender].tweeds[tweedIndex];\n        editedTweed.content.text = newContent;\n        editedTweed.edited = true;\n        userTweedMap[msg.sender].tweeds[tweedIndex] = editedTweed;\n        return true;\n    }\n\n    function deleteTweed(uint tweedIndex) public returns(bool) {\n        if(tweedIndex > userTweedMap[msg.sender].tweeds.length) return false;\n                \n        userTweedMap[msg.sender].tweeds[tweedIndex].hidden = true;\n        return true;\n    }\n\n    function postReply(bytes32 tweedUUID, string memory replyContent) public returns(bool) {\n        if(!TweederCoreUtils.isContentValid(replyContent)) return false;\n\n        TweederTypes.TweedReplyContent memory tweedReplyContent = TweederTypes.TweedReplyContent(replyContent);\n        bytes32 replyUUID = keccak256(abi.encodePacked(tweedUUID, replyContent));\n        uint replyID = tweedRepliesMap[tweedUUID].replies.length;\n\n        TweederTypes.TweedReply memory tweedReply = TweederTypes.TweedReply(replyID,\n            replyUUID, msg.sender, block.timestamp, tweedReplyContent, false, false);\n        tweedRepliesMap[tweedUUID].replies.push(tweedReply);\n        return true;\n    }\n\n    function getReply(bytes32 tweedUUID, uint replyIndex) public view returns(\n        uint id, bytes32 uuid, address userAdress, uint date, string memory text, bool edited, bool hidden){\n        TweederTypes.TweedReply memory tweedReply = tweedRepliesMap[tweedUUID].replies[replyIndex];\n        if(replyIndex >= tweedRepliesMap[tweedUUID].replies.length || tweedReply.hidden) \n            return (uint(0), bytes32(0), address(0), uint(0), string(\"No Replies to this Tweed!\"), false, false);\n        return (\n        tweedReply.id, tweedReply.uuid, tweedReply.user, tweedReply.date, tweedReply.content.text, tweedReply.edited, tweedReply.hidden\n        );    \n    }\n\n    function editRelpy(bytes32 tweedUUID, uint replyIndex, string memory newContent) public returns(bool) {\n        if(!TweederCoreUtils.isContentValid(newContent)) return false;\n\n        TweederTypes.TweedReply memory reply = tweedRepliesMap[tweedUUID].replies[replyIndex];\n        reply.content.text = newContent;\n        reply.edited = true;\n        tweedRepliesMap[tweedUUID].replies[replyIndex] = reply;\n        return true;\n    }\n\n    function deleteReply(bytes32 tweedUUID, uint replyIndex) public returns(bool) {\n        tweedRepliesMap[tweedUUID].replies;\n        if(replyIndex > tweedRepliesMap[tweedUUID].replies.length) return false;\n\n        tweedRepliesMap[tweedUUID].replies[replyIndex].hidden = true;\n        return true;\n    } \n\n    function getTweedsCount(address user) public view returns(uint) {\n        return userTweedMap[user].tweeds.length;\n    }\n\n    function getRepliesCount(bytes32 tweedUUID) public view returns(uint) {\n        return tweedRepliesMap[tweedUUID].replies.length;\n    }\n\n}\n\nlibrary TweederTypes {\n\n    struct TweedReplyContent {\n        string text;\n    }\n\n    struct TweedReply {\n        uint id;\n        bytes32 uuid;\n        address user; // owner\n        uint date;\n        TweedReplyContent content;\n        bool edited;\n        bool hidden;\n    }\n\n    struct TweedReplies {\n        TweedReply[] replies;\n    }\n\n    struct TweedContent {\n        string text;\n    }\n\n    struct Tweed {\n        uint id;\n        bytes32 uuid;\n        address user; // owner\n        uint date;\n        TweedContent content;\n        bool retweet;\n        bool edited;\n        bool hidden;\n    }\n\n    struct Tweeds {\n        Tweed[] tweeds;\n    }\n}\n\nlibrary TweederCoreUtils {\n    uint constant TWEED_LIMIT = 180;\n\n    function isContentValid(string memory content) internal pure returns(bool valid) {\n        uint contentLength = bytes(content).length;\n        if (contentLength > TWEED_LIMIT || contentLength == 0)\n            return false;\n        return true;\n    }\n\n    function pushElement(string[] memory arr, string memory element) internal pure returns(string[] memory){\n        arr[arr.length] = element;\n        return arr;\n    }\n\n    function deleteElement(string[] memory arr, uint toRemoveIndex) internal pure returns(string[] memory){\n        string[] memory newArr = new string[](arr.length-1);\n        for(uint i = 0; i < arr.length; i++) {\n            if(i == toRemoveIndex)\n                continue;\n            newArr = pushElement(newArr, arr[i]);\n        }\n        return newArr;        \n    }\n\n}",
  "sourcePath": "/Users/mock/Documents/self/ethereum/Tweeder/TweederEth/contracts/TweederCore.sol",
  "compiler": {
    "name": "solc",
    "version": "0.5.0+commit.1d4f565a.Emscripten.clang"
  },
  "schemaVersion": "3.0.1",
  "updatedAt": "2019-02-09T12:46:36.087Z",
  "devdoc": {
    "methods": {}
  },
  "userdoc": {
    "methods": {}
  }
}