{
  "contractName": "TweederCore",
  "abi": [
    {
      "inputs": [],
      "payable": false,
      "stateMutability": "nonpayable",
      "type": "constructor"
    },
    {
      "anonymous": false,
      "inputs": [
        {
          "indexed": true,
          "name": "_from",
          "type": "address"
        },
        {
          "indexed": true,
          "name": "_to",
          "type": "address"
        },
        {
          "indexed": false,
          "name": "_value",
          "type": "uint256"
        }
      ],
      "name": "Transfer",
      "type": "event"
    },
    {
      "constant": false,
      "inputs": [
        {
          "name": "receivedContent",
          "type": "string"
        }
      ],
      "name": "postTweed",
      "outputs": [
        {
          "name": "",
          "type": "bool"
        }
      ],
      "payable": false,
      "stateMutability": "nonpayable",
      "type": "function"
    },
    {
      "constant": true,
      "inputs": [
        {
          "name": "userAddress",
          "type": "address"
        },
        {
          "name": "tweedIndex",
          "type": "uint256"
        }
      ],
      "name": "getTweed",
      "outputs": [
        {
          "name": "id",
          "type": "uint256"
        },
        {
          "name": "uuid",
          "type": "bytes32"
        },
        {
          "name": "user",
          "type": "address"
        },
        {
          "name": "date",
          "type": "uint256"
        },
        {
          "name": "text",
          "type": "string"
        },
        {
          "name": "retweet",
          "type": "bool"
        },
        {
          "name": "edited",
          "type": "bool"
        },
        {
          "name": "hidden",
          "type": "bool"
        }
      ],
      "payable": false,
      "stateMutability": "view",
      "type": "function"
    },
    {
      "constant": false,
      "inputs": [
        {
          "name": "tweedIndex",
          "type": "uint256"
        },
        {
          "name": "newContent",
          "type": "string"
        }
      ],
      "name": "editTweed",
      "outputs": [
        {
          "name": "",
          "type": "bool"
        }
      ],
      "payable": false,
      "stateMutability": "nonpayable",
      "type": "function"
    },
    {
      "constant": false,
      "inputs": [
        {
          "name": "tweedIndex",
          "type": "uint256"
        }
      ],
      "name": "deleteTweed",
      "outputs": [
        {
          "name": "",
          "type": "bool"
        }
      ],
      "payable": false,
      "stateMutability": "nonpayable",
      "type": "function"
    },
    {
      "constant": false,
      "inputs": [
        {
          "name": "tweedUUID",
          "type": "bytes32"
        },
        {
          "name": "replyContent",
          "type": "string"
        }
      ],
      "name": "postReply",
      "outputs": [
        {
          "name": "",
          "type": "bool"
        }
      ],
      "payable": false,
      "stateMutability": "nonpayable",
      "type": "function"
    },
    {
      "constant": true,
      "inputs": [
        {
          "name": "tweedUUID",
          "type": "bytes32"
        },
        {
          "name": "replyIndex",
          "type": "uint256"
        }
      ],
      "name": "getReply",
      "outputs": [
        {
          "name": "id",
          "type": "uint256"
        },
        {
          "name": "uuid",
          "type": "bytes32"
        },
        {
          "name": "userAdress",
          "type": "address"
        },
        {
          "name": "date",
          "type": "uint256"
        },
        {
          "name": "text",
          "type": "string"
        },
        {
          "name": "edited",
          "type": "bool"
        },
        {
          "name": "hidden",
          "type": "bool"
        }
      ],
      "payable": false,
      "stateMutability": "view",
      "type": "function"
    },
    {
      "constant": false,
      "inputs": [
        {
          "name": "tweedUUID",
          "type": "bytes32"
        },
        {
          "name": "replyIndex",
          "type": "uint256"
        },
        {
          "name": "newContent",
          "type": "string"
        }
      ],
      "name": "editReply",
      "outputs": [
        {
          "name": "",
          "type": "bool"
        }
      ],
      "payable": false,
      "stateMutability": "nonpayable",
      "type": "function"
    },
    {
      "constant": false,
      "inputs": [
        {
          "name": "tweedUUID",
          "type": "bytes32"
        },
        {
          "name": "replyIndex",
          "type": "uint256"
        }
      ],
      "name": "deleteReply",
      "outputs": [
        {
          "name": "",
          "type": "bool"
        }
      ],
      "payable": false,
      "stateMutability": "nonpayable",
      "type": "function"
    },
    {
      "constant": true,
      "inputs": [
        {
          "name": "user",
          "type": "address"
        }
      ],
      "name": "getTweedsCount",
      "outputs": [
        {
          "name": "",
          "type": "uint256"
        }
      ],
      "payable": false,
      "stateMutability": "view",
      "type": "function"
    },
    {
      "constant": true,
      "inputs": [
        {
          "name": "tweedUUID",
          "type": "bytes32"
        }
      ],
      "name": "getRepliesCount",
      "outputs": [
        {
          "name": "",
          "type": "uint256"
        }
      ],
      "payable": false,
      "stateMutability": "view",
      "type": "function"
    }
  ],
  "bytecode": "0x608060405234801561001057600080fd5b50611e3a806100206000396000f3fe6080604052600436106100a4576000357c0100000000000000000000000000000000000000000000000000000000900463ffffffff168063096f646d146100a9578063139d7293146100f857806328e0f0b6146101ec5780632ef00ac2146102495780633d622666146103335780634e525e401461044f57806359c38be814610539578063c7093f9914610619578063d2fdc59c1461067e578063dd7d9b7e146107bb575b600080fd5b3480156100b557600080fd5b506100e2600480360360208110156100cc57600080fd5b810190808035906020019092919050505061080e565b6040518082815260200191505060405180910390f35b34801561010457600080fd5b506101d26004803603606081101561011b57600080fd5b8101908080359060200190929190803590602001909291908035906020019064010000000081111561014c57600080fd5b82018360208201111561015e57600080fd5b8035906020019184600183028401116401000000008311171561018057600080fd5b91908080601f016020809104026020016040519081016040528093929190818152602001838380828437600081840152601f19601f820116905080830192505050505050509192919290505050610831565b604051808215151515815260200191505060405180910390f35b3480156101f857600080fd5b5061022f6004803603604081101561020f57600080fd5b810190808035906020019092919080359060200190929190505050610bb9565b604051808215151515815260200191505060405180910390f35b34801561025557600080fd5b506103196004803603604081101561026c57600080fd5b81019080803590602001909291908035906020019064010000000081111561029357600080fd5b8201836020820111156102a557600080fd5b803590602001918460018302840111640100000000831117156102c757600080fd5b91908080601f016020809104026020016040519081016040528093929190818152602001838380828437600081840152601f19601f820116905080830192505050505050509192919290505050610cd5565b604051808215151515815260200191505060405180910390f35b34801561033f57600080fd5b506103766004803603604081101561035657600080fd5b810190808035906020019092919080359060200190929190505050611055565b604051808881526020018781526020018673ffffffffffffffffffffffffffffffffffffffff1673ffffffffffffffffffffffffffffffffffffffff168152602001858152602001806020018415151515815260200183151515158152602001828103825285818151815260200191508051906020019080838360005b8381101561040e5780820151818401526020810190506103f3565b50505050905090810190601f16801561043b5780820380516001836020036101000a031916815260200191505b509850505050505050505060405180910390f35b34801561045b57600080fd5b5061051f6004803603604081101561047257600080fd5b81019080803590602001909291908035906020019064010000000081111561049957600080fd5b8201836020820111156104ab57600080fd5b803590602001918460018302840111640100000000831117156104cd57600080fd5b91908080601f016020809104026020016040519081016040528093929190818152602001838380828437600081840152601f19601f8201169050808301925050505050505091929192905050506112d6565b604051808215151515815260200191505060405180910390f35b34801561054557600080fd5b506105ff6004803603602081101561055c57600080fd5b810190808035906020019064010000000081111561057957600080fd5b82018360208201111561058b57600080fd5b803590602001918460018302840111640100000000831117156105ad57600080fd5b91908080601f016020809104026020016040519081016040528093929190818152602001838380828437600081840152601f19601f820116905080830192505050505050509192919290505050611523565b604051808215151515815260200191505060405180910390f35b34801561062557600080fd5b506106686004803603602081101561063c57600080fd5b81019080803573ffffffffffffffffffffffffffffffffffffffff1690602001909291905050506117ef565b6040518082815260200191505060405180910390f35b34801561068a57600080fd5b506106d7600480360360408110156106a157600080fd5b81019080803573ffffffffffffffffffffffffffffffffffffffff1690602001909291908035906020019092919050505061183d565b604051808981526020018881526020018773ffffffffffffffffffffffffffffffffffffffff1673ffffffffffffffffffffffffffffffffffffffff16815260200186815260200180602001851515151581526020018415151515815260200183151515158152602001828103825286818151815260200191508051906020019080838360005b8381101561077957808201518184015260208101905061075e565b50505050905090810190601f1680156107a65780820380516001836020036101000a031916815260200191505b50995050505050505050505060405180910390f35b3480156107c757600080fd5b506107f4600480360360208110156107de57600080fd5b8101908080359060200190929190505050611b44565b604051808215151515815260200191505060405180910390f35b600060016000838152602001908152602001600020600001805490509050919050565b600080600160008681526020019081526020016000206000018481548110151561085757fe5b906000526020600020906006020160020160009054906101000a900473ffffffffffffffffffffffffffffffffffffffff16905061089483611c1d565b15156108a4576000915050610bb2565b8073ffffffffffffffffffffffffffffffffffffffff163373ffffffffffffffffffffffffffffffffffffffff161415156108e3576000915050610bb2565b6108eb611c4d565b600160008781526020019081526020016000206000018581548110151561090e57fe5b906000526020600020906006020160e0604051908101604052908160008201548152602001600182015481526020016002820160009054906101000a900473ffffffffffffffffffffffffffffffffffffffff1673ffffffffffffffffffffffffffffffffffffffff1673ffffffffffffffffffffffffffffffffffffffff168152602001600382015481526020016004820160206040519081016040529081600082018054600181600116156101000203166002900480601f016020809104026020016040519081016040528092919081815260200182805460018160011615610100020316600290048015610a465780601f10610a1b57610100808354040283529160200191610a46565b820191906000526020600020905b815481529060010190602001808311610a2957829003601f168201915b50505050508152505081526020016005820160009054906101000a900460ff161515151581526020016005820160019054906101000a900460ff16151515158152505090508381608001516000018190525060018160a0019015159081151581525050806001600088815260200190815260200160002060000186815481101515610acd57fe5b9060005260206000209060060201600082015181600001556020820151816001015560408201518160020160006101000a81548173ffffffffffffffffffffffffffffffffffffffff021916908373ffffffffffffffffffffffffffffffffffffffff160217905550606082015181600301556080820151816004016000820151816000019080519060200190610b65929190611cae565b50505060a08201518160050160006101000a81548160ff02191690831515021790555060c08201518160050160016101000a81548160ff0219169083151502179055509050506001925050505b9392505050565b6000806001600085815260200190815260200160002060000183815481101515610bdf57fe5b906000526020600020906006020160020160009054906101000a900473ffffffffffffffffffffffffffffffffffffffff1690506001600085815260200190815260200160002060000180549050831115610c3e576000915050610ccf565b8073ffffffffffffffffffffffffffffffffffffffff163373ffffffffffffffffffffffffffffffffffffffff16141515610c7d576000915050610ccf565b600180600086815260200190815260200160002060000184815481101515610ca157fe5b906000526020600020906006020160050160016101000a81548160ff02191690831515021790555060019150505b92915050565b6000610ce082611c1d565b1515610cef576000905061104f565b610cf7611d2e565b6000803373ffffffffffffffffffffffffffffffffffffffff1673ffffffffffffffffffffffffffffffffffffffff16815260200190815260200160002060000184815481101515610d4557fe5b9060005260206000209060060201610100604051908101604052908160008201548152602001600182015481526020016002820160009054906101000a900473ffffffffffffffffffffffffffffffffffffffff1673ffffffffffffffffffffffffffffffffffffffff1673ffffffffffffffffffffffffffffffffffffffff168152602001600382015481526020016004820160206040519081016040529081600082018054600181600116156101000203166002900480601f016020809104026020016040519081016040528092919081815260200182805460018160011615610100020316600290048015610e7e5780601f10610e5357610100808354040283529160200191610e7e565b820191906000526020600020905b815481529060010190602001808311610e6157829003601f168201915b50505050508152505081526020016005820160009054906101000a900460ff161515151581526020016005820160019054906101000a900460ff161515151581526020016005820160029054906101000a900460ff16151515158152505090508281608001516000018190525060018160c0019015159081151581525050806000803373ffffffffffffffffffffffffffffffffffffffff1673ffffffffffffffffffffffffffffffffffffffff16815260200190815260200160002060000185815481101515610f4b57fe5b9060005260206000209060060201600082015181600001556020820151816001015560408201518160020160006101000a81548173ffffffffffffffffffffffffffffffffffffffff021916908373ffffffffffffffffffffffffffffffffffffffff160217905550606082015181600301556080820151816004016000820151816000019080519060200190610fe3929190611cae565b50505060a08201518160050160006101000a81548160ff02191690831515021790555060c08201518160050160016101000a81548160ff02191690831515021790555060e08201518160050160026101000a81548160ff02191690831515021790555090505060019150505b92915050565b6000806000806060600080611068611c4d565b600160008b81526020019081526020016000206000018981548110151561108b57fe5b906000526020600020906006020160e0604051908101604052908160008201548152602001600182015481526020016002820160009054906101000a900473ffffffffffffffffffffffffffffffffffffffff1673ffffffffffffffffffffffffffffffffffffffff1673ffffffffffffffffffffffffffffffffffffffff168152602001600382015481526020016004820160206040519081016040529081600082018054600181600116156101000203166002900480601f0160208091040260200160405190810160405280929190818152602001828054600181600116156101000203166002900480156111c35780601f10611198576101008083540402835291602001916111c3565b820191906000526020600020905b8154815290600101906020018083116111a657829003601f168201915b50505050508152505081526020016005820160009054906101000a900460ff161515151581526020016005820160019054906101000a900460ff1615151515815250509050600160008b8152602001908152602001600020600001805490508910158061123157508060c001515b15611290576000806001026000806040805190810160405280601981526020017f4e6f205265706c69657320746f20746869732054776565642100000000000000815250600060018494509750975097509750975097509750506112ca565b80600001518160200151826040015183606001518460800151600001518560a001518660c001518292509750975097509750975097509750505b92959891949750929550565b60006112e182611c1d565b15156112f0576000905061151d565b6112f8611d99565b602060405190810160405280848152509050600084846040516020018083815260200182805190602001908083835b60208310151561134c5780518252602082019150602081019050602083039250611327565b6001836020036101000a038019825116818451168082178552505050505050905001925050506040516020818303038152906040528051906020012090506000600160008781526020019081526020016000206000018054905090506113b0611c4d565b60e0604051908101604052808381526020018481526020013373ffffffffffffffffffffffffffffffffffffffff168152602001428152602001858152602001600015158152602001600015158152509050600160008881526020019081526020016000206000018190806001815401808255809150509060018203906000526020600020906006020160009091929091909150600082015181600001556020820151816001015560408201518160020160006101000a81548173ffffffffffffffffffffffffffffffffffffffff021916908373ffffffffffffffffffffffffffffffffffffffff1602179055506060820151816003015560808201518160040160008201518160000190805190602001906114ce929190611cae565b50505060a08201518160050160006101000a81548160ff02191690831515021790555060c08201518160050160016101000a81548160ff02191690831515021790555050505060019450505050505b92915050565b600061152e82611c1d565b151561153d57600090506117ea565b611545611dad565b60206040519081016040528084815250905060008060003373ffffffffffffffffffffffffffffffffffffffff1673ffffffffffffffffffffffffffffffffffffffff168152602001908152602001600020600001805490509050600081856040516020018083815260200182805190602001908083835b6020831015156115e257805182526020820191506020810190506020830392506115bd565b6001836020036101000a03801982511681845116808217855250505050505090500192505050604051602081830303815290604052805190602001209050611628611d2e565b610100604051908101604052808481526020018381526020013373ffffffffffffffffffffffffffffffffffffffff1681526020014281526020018581526020016000151581526020016000151581526020016000151581525090506000803373ffffffffffffffffffffffffffffffffffffffff1673ffffffffffffffffffffffffffffffffffffffff1681526020019081526020016000206000018190806001815401808255809150509060018203906000526020600020906006020160009091929091909150600082015181600001556020820151816001015560408201518160020160006101000a81548173ffffffffffffffffffffffffffffffffffffffff021916908373ffffffffffffffffffffffffffffffffffffffff16021790555060608201518160030155608082015181600401600082015181600001908051906020019061177b929190611cae565b50505060a08201518160050160006101000a81548160ff02191690831515021790555060c08201518160050160016101000a81548160ff02191690831515021790555060e08201518160050160026101000a81548160ff02191690831515021790555050505060019450505050505b919050565b60008060008373ffffffffffffffffffffffffffffffffffffffff1673ffffffffffffffffffffffffffffffffffffffff168152602001908152602001600020600001805490509050919050565b60008060008060606000806000611852611d2e565b6000808c73ffffffffffffffffffffffffffffffffffffffff1673ffffffffffffffffffffffffffffffffffffffff1681526020019081526020016000206000018a8154811015156118a057fe5b9060005260206000209060060201610100604051908101604052908160008201548152602001600182015481526020016002820160009054906101000a900473ffffffffffffffffffffffffffffffffffffffff1673ffffffffffffffffffffffffffffffffffffffff1673ffffffffffffffffffffffffffffffffffffffff168152602001600382015481526020016004820160206040519081016040529081600082018054600181600116156101000203166002900480601f0160208091040260200160405190810160405280929190818152602001828054600181600116156101000203166002900480156119d95780601f106119ae576101008083540402835291602001916119d9565b820191906000526020600020905b8154815290600101906020018083116119bc57829003601f168201915b50505050508152505081526020016005820160009054906101000a900460ff161515151581526020016005820160019054906101000a900460ff161515151581526020016005820160029054906101000a900460ff16151515158152505090506000808c73ffffffffffffffffffffffffffffffffffffffff1673ffffffffffffffffffffffffffffffffffffffff168152602001908152602001600020600001805490508a101580611a945750600115158160e001511515145b15611af6576000806001026000806040805190810160405280601a81526020017f4e6f20547765656473206f6e2074686973204163636f756e742100000000000081525060008060018595509850985098509850985098509850985050611b37565b80600001518160200151826040015183606001518460800151600001518560a001518660c001518760e0015183935098509850985098509850985098509850505b9295985092959890939650565b60008060003373ffffffffffffffffffffffffffffffffffffffff1673ffffffffffffffffffffffffffffffffffffffff16815260200190815260200160002060000180549050821115611b9b5760009050611c18565b60016000803373ffffffffffffffffffffffffffffffffffffffff1673ffffffffffffffffffffffffffffffffffffffff16815260200190815260200160002060000183815481101515611beb57fe5b906000526020600020906006020160050160026101000a81548160ff021916908315150217905550600190505b919050565b6000808251905060b4811180611c335750600081145b15611c42576000915050611c48565b60019150505b919050565b60e0604051908101604052806000815260200160008019168152602001600073ffffffffffffffffffffffffffffffffffffffff16815260200160008152602001611c96611dc1565b81526020016000151581526020016000151581525090565b828054600181600116156101000203166002900490600052602060002090601f016020900481019282601f10611cef57805160ff1916838001178555611d1d565b82800160010185558215611d1d579182015b82811115611d1c578251825591602001919060010190611d01565b5b509050611d2a9190611dd5565b5090565b610100604051908101604052806000815260200160008019168152602001600073ffffffffffffffffffffffffffffffffffffffff16815260200160008152602001611d78611dfa565b81526020016000151581526020016000151581526020016000151581525090565b602060405190810160405280606081525090565b602060405190810160405280606081525090565b602060405190810160405280606081525090565b611df791905b80821115611df3576000816000905550600101611ddb565b5090565b90565b60206040519081016040528060608152509056fea165627a7a72305820241412f64aed4ddbdb5ca4128063bd4442a6b9fe7addfe4718dbee281fc5d3710029",
  "source": "pragma solidity >=0.4.25 <0.6.0;\ncontract TweederCore {\n    /* \n        mapping between user address and tweeds structs\n     */\n    mapping (address => TweederTypes.Tweeds) userTweedMap;\n    mapping (bytes32 => TweederTypes.TweedReplies) tweedRepliesMap;\n    /*\n        unused event \n    */\n    event Transfer(address indexed _from, address indexed _to, uint256 _value);\n\n    constructor() public {\n    }\n\n    /*\n    * Function:  postTweed \n    * --------------------\n    * Creates a new post from the user who issue the transaction\n    *\n    *  string memory receivedContent: The content of the tweed\n    *\n    *  returns: success status as boolean\n    */\n    function postTweed(string memory receivedContent) public returns(bool) {\n        if(!TweederCoreUtils.isContentValid(receivedContent)) return false;\n\n        TweederTypes.TweedContent memory tweedContent = TweederTypes.TweedContent(receivedContent);\n        uint tweedID = userTweedMap[msg.sender].tweeds.length;\n        bytes32 tweedUUID = keccak256(abi.encodePacked(tweedID, receivedContent));\n\n        TweederTypes.Tweed memory tweed = TweederTypes.Tweed(tweedID, \n            tweedUUID, msg.sender, block.timestamp, tweedContent, false, false, false);\n        userTweedMap[msg.sender].tweeds.push(tweed);\n        return true;\n    }\n\n    /*\n    * Function:  getTweed \n    * -------------------\n    * Reads a post from storage\n    *\n    *  address userAddress: address of the owner of the tweed\n    *  uint tweedIndex: index of the tweed on the owner storage\n    *  \n    *  returns: struct representing the tweed data and metadata \n    */\n    function getTweed(address userAddress, uint tweedIndex) public view returns(\n        uint id, bytes32 uuid, address user, uint date, string memory text, bool retweet, bool edited, bool hidden){\n        TweederTypes.Tweed memory tweed = userTweedMap[userAddress].tweeds[tweedIndex];\n        if(tweedIndex >= userTweedMap[userAddress].tweeds.length || tweed.hidden == true)\n            return (uint(0), bytes32(0), address(0), uint(0), string(\"No Tweeds on this Account!\"), false, false, true);\n        return (\n        tweed.id, tweed.uuid, tweed.user, tweed.date, tweed.content.text, tweed.retweet, tweed.edited, tweed.hidden\n        ); \n    }\n\n    /*\n    * Function:  editTweed \n    * --------------------\n    * Updates a post from storage\n    *\n    *  uint tweedIndex: index of the tweed on the owner storage\n    *  string memory newContent: tweed's new content\n    *  \n    *  returns: returns: success status as boolean \n    */\n    function editTweed(uint tweedIndex, string memory newContent) public returns(bool) {\n        if(!TweederCoreUtils.isContentValid(newContent)) return false;\n\n        TweederTypes.Tweed memory editedTweed = userTweedMap[msg.sender].tweeds[tweedIndex];\n        editedTweed.content.text = newContent;\n        editedTweed.edited = true;\n        userTweedMap[msg.sender].tweeds[tweedIndex] = editedTweed;\n        return true;\n    }\n\n    /*\n    * Function:  deleteTweed \n    * ----------------------\n    * deletes a post from storage \n    *\n    *  uint tweedIndex: index of the tweed on the owner storage\n    *  \n    *  returns: returns: success status as boolean \n    */\n    function deleteTweed(uint tweedIndex) public returns(bool) {\n        if(tweedIndex > userTweedMap[msg.sender].tweeds.length) return false;\n                \n        userTweedMap[msg.sender].tweeds[tweedIndex].hidden = true;\n        return true;\n    }\n\n    /*\n    * Function:  postReply \n    * --------------------\n    * Creates a new post from the user who issue the transaction\n    *  bytes32 tweedUUID: uuid represents a tweed\n    *  string memory receivedContent: The content of the reply\n    *\n    *  returns: success status as boolean\n    */\n    function postReply(bytes32 tweedUUID, string memory replyContent) public returns(bool) {\n        if(!TweederCoreUtils.isContentValid(replyContent)) return false;\n\n        TweederTypes.TweedReplyContent memory tweedReplyContent = TweederTypes.TweedReplyContent(replyContent);\n        bytes32 replyUUID = keccak256(abi.encodePacked(tweedUUID, replyContent));\n        uint replyID = tweedRepliesMap[tweedUUID].replies.length;\n\n        TweederTypes.TweedReply memory tweedReply = TweederTypes.TweedReply(replyID,\n            replyUUID, msg.sender, block.timestamp, tweedReplyContent, false, false);\n        tweedRepliesMap[tweedUUID].replies.push(tweedReply);\n        return true;\n    }\n\n    /*\n    * Function:  getReply \n    * -------------------\n    * Reads a reply from storage\n    *\n    *  bytes32 tweedUUID: uuid represents a tweed\n    *  uint replyIndex: index of the reply on the tweeds storage\n    *  \n    *  returns: struct representing the tweed data and metadata \n    */\n    function getReply(bytes32 tweedUUID, uint replyIndex) public view returns(\n        uint id, bytes32 uuid, address userAdress, uint date, string memory text, bool edited, bool hidden){\n        TweederTypes.TweedReply memory tweedReply = tweedRepliesMap[tweedUUID].replies[replyIndex];\n        if(replyIndex >= tweedRepliesMap[tweedUUID].replies.length || tweedReply.hidden) \n            return (uint(0), bytes32(0), address(0), uint(0), string(\"No Replies to this Tweed!\"), false, true);\n        return (\n        tweedReply.id, tweedReply.uuid, tweedReply.user, tweedReply.date, tweedReply.content.text, tweedReply.edited, tweedReply.hidden\n        );    \n    }\n\n    /*\n    * Function:  editReply\n    * --------------------\n    * Updates a reply on storage\n    *\n    *  bytes32 tweedUUID: uuid represents a tweed\n    *  string memory newContent: reply's new content\n    *  \n    *  returns: returns: success status as boolean \n    */\n    function editReply(bytes32 tweedUUID, uint replyIndex, string memory newContent) public returns(bool) {\n        address owner = tweedRepliesMap[tweedUUID].replies[replyIndex].user;\n        if(!TweederCoreUtils.isContentValid(newContent)) return false;\n        if(msg.sender != owner) return false;\n\n        TweederTypes.TweedReply memory reply = tweedRepliesMap[tweedUUID].replies[replyIndex];\n        reply.content.text = newContent;\n        reply.edited = true;\n        tweedRepliesMap[tweedUUID].replies[replyIndex] = reply;\n        return true;\n    }\n\n    /*\n    * Function:  deleteTweed \n    * ----------------------\n    * deletes a comment from storage \n    *\n    *  bytes32 tweedUUID: uuid represents a tweed\n    *  uint reply: index of the tweed on the owner storage\n    *  \n    *  returns: returns: success status as boolean \n    */\n    function deleteReply(bytes32 tweedUUID, uint replyIndex) public returns(bool) {\n        address owner = tweedRepliesMap[tweedUUID].replies[replyIndex].user;\n        if(replyIndex > tweedRepliesMap[tweedUUID].replies.length) return false;\n        if(msg.sender != owner) return false;\n\n        tweedRepliesMap[tweedUUID].replies[replyIndex].hidden = true;\n        return true;\n    } \n\n    function getTweedsCount(address user) public view returns(uint) {\n        return userTweedMap[user].tweeds.length;\n    }\n\n    function getRepliesCount(bytes32 tweedUUID) public view returns(uint) {\n        return tweedRepliesMap[tweedUUID].replies.length;\n    }\n\n}\n\nlibrary TweederTypes {\n\n    struct TweedReplyContent {\n        string text;\n    }\n\n    struct TweedReply {\n        uint id;\n        bytes32 uuid;\n        address user; // owner\n        uint date;\n        TweedReplyContent content;\n        bool edited;\n        bool hidden;\n    }\n\n    struct TweedReplies {\n        TweedReply[] replies;\n    }\n\n    struct TweedContent {\n        string text;\n    }\n\n    struct Tweed {\n        uint id;\n        bytes32 uuid;\n        address user; // owner\n        uint date;\n        TweedContent content;\n        bool retweet;\n        bool edited;\n        bool hidden;\n    }\n\n    struct Tweeds {\n        Tweed[] tweeds;\n    }\n}\n\nlibrary TweederCoreUtils {\n    uint constant TWEED_LIMIT = 180;\n\n    function isContentValid(string memory content) internal pure returns(bool valid) {\n        uint contentLength = bytes(content).length;\n        if (contentLength > TWEED_LIMIT || contentLength == 0)\n            return false;\n        return true;\n    }\n}",
  "sourcePath": "/Users/mock/Documents/self/ethereum/Tweeder/contracts/TweederCore.sol",
  "compiler": {
    "name": "solc",
    "version": "0.5.0+commit.1d4f565a.Emscripten.clang"
  },
  "schemaVersion": "3.0.1",
  "updatedAt": "2019-02-11T02:14:14.824Z",
  "devdoc": {
    "methods": {}
  },
  "userdoc": {
    "methods": {}
  }
}