{
  "contractName": "Tweeder",
  "abi": [
    {
      "constant": true,
      "inputs": [
        {
          "name": "tweedUUID",
          "type": "bytes32"
        }
      ],
      "name": "getRepliesCount",
      "outputs": [
        {
          "name": "",
          "type": "uint256"
        }
      ],
      "payable": false,
      "stateMutability": "view",
      "type": "function",
      "signature": "0x096f646d"
    },
    {
      "constant": false,
      "inputs": [
        {
          "name": "tweedUUID",
          "type": "bytes32"
        },
        {
          "name": "replyIndex",
          "type": "uint256"
        },
        {
          "name": "newContent",
          "type": "string"
        }
      ],
      "name": "editReply",
      "outputs": [
        {
          "name": "",
          "type": "bool"
        }
      ],
      "payable": false,
      "stateMutability": "nonpayable",
      "type": "function",
      "signature": "0x139d7293"
    },
    {
      "constant": false,
      "inputs": [
        {
          "name": "tweedUUID",
          "type": "bytes32"
        },
        {
          "name": "replyIndex",
          "type": "uint256"
        }
      ],
      "name": "deleteReply",
      "outputs": [
        {
          "name": "",
          "type": "bool"
        }
      ],
      "payable": false,
      "stateMutability": "nonpayable",
      "type": "function",
      "signature": "0x28e0f0b6"
    },
    {
      "constant": false,
      "inputs": [
        {
          "name": "tweedIndex",
          "type": "uint256"
        },
        {
          "name": "newContent",
          "type": "string"
        }
      ],
      "name": "editTweed",
      "outputs": [
        {
          "name": "",
          "type": "bool"
        }
      ],
      "payable": false,
      "stateMutability": "nonpayable",
      "type": "function",
      "signature": "0x2ef00ac2"
    },
    {
      "constant": true,
      "inputs": [
        {
          "name": "tweedUUID",
          "type": "bytes32"
        },
        {
          "name": "replyIndex",
          "type": "uint256"
        }
      ],
      "name": "getReply",
      "outputs": [
        {
          "name": "id",
          "type": "uint256"
        },
        {
          "name": "uuid",
          "type": "bytes32"
        },
        {
          "name": "userAdress",
          "type": "address"
        },
        {
          "name": "date",
          "type": "uint256"
        },
        {
          "name": "text",
          "type": "string"
        },
        {
          "name": "edited",
          "type": "bool"
        },
        {
          "name": "hidden",
          "type": "bool"
        }
      ],
      "payable": false,
      "stateMutability": "view",
      "type": "function",
      "signature": "0x3d622666"
    },
    {
      "constant": false,
      "inputs": [
        {
          "name": "tweedUUID",
          "type": "bytes32"
        },
        {
          "name": "replyContent",
          "type": "string"
        }
      ],
      "name": "postReply",
      "outputs": [
        {
          "name": "",
          "type": "bool"
        }
      ],
      "payable": false,
      "stateMutability": "nonpayable",
      "type": "function",
      "signature": "0x4e525e40"
    },
    {
      "constant": false,
      "inputs": [
        {
          "name": "receivedContent",
          "type": "string"
        }
      ],
      "name": "postTweed",
      "outputs": [
        {
          "name": "",
          "type": "bool"
        }
      ],
      "payable": false,
      "stateMutability": "nonpayable",
      "type": "function",
      "signature": "0x59c38be8"
    },
    {
      "constant": false,
      "inputs": [
        {
          "name": "receiver",
          "type": "address"
        },
        {
          "name": "amount",
          "type": "uint256"
        }
      ],
      "name": "sendCoin",
      "outputs": [
        {
          "name": "sufficient",
          "type": "bool"
        }
      ],
      "payable": false,
      "stateMutability": "nonpayable",
      "type": "function",
      "signature": "0x90b98a11"
    },
    {
      "constant": true,
      "inputs": [
        {
          "name": "user",
          "type": "address"
        }
      ],
      "name": "getTweedsCount",
      "outputs": [
        {
          "name": "",
          "type": "uint256"
        }
      ],
      "payable": false,
      "stateMutability": "view",
      "type": "function",
      "signature": "0xc7093f99"
    },
    {
      "constant": true,
      "inputs": [
        {
          "name": "userAddress",
          "type": "address"
        },
        {
          "name": "tweedIndex",
          "type": "uint256"
        }
      ],
      "name": "getTweed",
      "outputs": [
        {
          "name": "id",
          "type": "uint256"
        },
        {
          "name": "uuid",
          "type": "bytes32"
        },
        {
          "name": "user",
          "type": "address"
        },
        {
          "name": "date",
          "type": "uint256"
        },
        {
          "name": "text",
          "type": "string"
        },
        {
          "name": "retweet",
          "type": "bool"
        },
        {
          "name": "edited",
          "type": "bool"
        },
        {
          "name": "hidden",
          "type": "bool"
        }
      ],
      "payable": false,
      "stateMutability": "view",
      "type": "function",
      "signature": "0xd2fdc59c"
    },
    {
      "constant": false,
      "inputs": [
        {
          "name": "tweedIndex",
          "type": "uint256"
        }
      ],
      "name": "deleteTweed",
      "outputs": [
        {
          "name": "",
          "type": "bool"
        }
      ],
      "payable": false,
      "stateMutability": "nonpayable",
      "type": "function",
      "signature": "0xdd7d9b7e"
    },
    {
      "constant": true,
      "inputs": [
        {
          "name": "addr",
          "type": "address"
        }
      ],
      "name": "getBalance",
      "outputs": [
        {
          "name": "",
          "type": "uint256"
        }
      ],
      "payable": false,
      "stateMutability": "view",
      "type": "function",
      "signature": "0xf8b2cb4f"
    },
    {
      "inputs": [],
      "payable": false,
      "stateMutability": "nonpayable",
      "type": "constructor",
      "signature": "constructor"
    },
    {
      "anonymous": false,
      "inputs": [
        {
          "indexed": true,
          "name": "_from",
          "type": "address"
        },
        {
          "indexed": true,
          "name": "_to",
          "type": "address"
        },
        {
          "indexed": false,
          "name": "_value",
          "type": "uint256"
        }
      ],
      "name": "Transfer",
      "type": "event",
      "signature": "0xddf252ad1be2c89b69c2b068fc378daa952ba7f163c4a11628f55a4df523b3ef"
    }
  ],
  "bytecode": "0x608060405234801561001057600080fd5b506127106000803373ffffffffffffffffffffffffffffffffffffffff1673ffffffffffffffffffffffffffffffffffffffff168152602001908152602001600020819055506120d2806100656000396000f3fe6080604052600436106100ba576000357c0100000000000000000000000000000000000000000000000000000000900463ffffffff168063096f646d146100bf578063139d72931461010e57806328e0f0b6146102025780632ef00ac21461025f5780633d622666146103495780634e525e401461046557806359c38be81461054f57806390b98a111461062f578063c7093f99146106a2578063d2fdc59c14610707578063dd7d9b7e14610844578063f8b2cb4f14610897575b600080fd5b3480156100cb57600080fd5b506100f8600480360360208110156100e257600080fd5b81019080803590602001909291905050506108fc565b6040518082815260200191505060405180910390f35b34801561011a57600080fd5b506101e86004803603606081101561013157600080fd5b8101908080359060200190929190803590602001909291908035906020019064010000000081111561016257600080fd5b82018360208201111561017457600080fd5b8035906020019184600183028401116401000000008311171561019657600080fd5b91908080601f016020809104026020016040519081016040528093929190818152602001838380828437600081840152601f19601f82011690508083019250505050505050919291929050505061091f565b604051808215151515815260200191505060405180910390f35b34801561020e57600080fd5b506102456004803603604081101561022557600080fd5b810190808035906020019092919080359060200190929190505050610ca7565b604051808215151515815260200191505060405180910390f35b34801561026b57600080fd5b5061032f6004803603604081101561028257600080fd5b8101908080359060200190929190803590602001906401000000008111156102a957600080fd5b8201836020820111156102bb57600080fd5b803590602001918460018302840111640100000000831117156102dd57600080fd5b91908080601f016020809104026020016040519081016040528093929190818152602001838380828437600081840152601f19601f820116905080830192505050505050509192919290505050610dc4565b604051808215151515815260200191505060405180910390f35b34801561035557600080fd5b5061038c6004803603604081101561036c57600080fd5b810190808035906020019092919080359060200190929190505050611146565b604051808881526020018781526020018673ffffffffffffffffffffffffffffffffffffffff1673ffffffffffffffffffffffffffffffffffffffff168152602001858152602001806020018415151515815260200183151515158152602001828103825285818151815260200191508051906020019080838360005b83811015610424578082015181840152602081019050610409565b50505050905090810190601f1680156104515780820380516001836020036101000a031916815260200191505b509850505050505050505060405180910390f35b34801561047157600080fd5b506105356004803603604081101561048857600080fd5b8101908080359060200190929190803590602001906401000000008111156104af57600080fd5b8201836020820111156104c157600080fd5b803590602001918460018302840111640100000000831117156104e357600080fd5b91908080601f016020809104026020016040519081016040528093929190818152602001838380828437600081840152601f19601f8201169050808301925050505050505091929192905050506113c7565b604051808215151515815260200191505060405180910390f35b34801561055b57600080fd5b506106156004803603602081101561057257600080fd5b810190808035906020019064010000000081111561058f57600080fd5b8201836020820111156105a157600080fd5b803590602001918460018302840111640100000000831117156105c357600080fd5b91908080601f016020809104026020016040519081016040528093929190818152602001838380828437600081840152601f19601f820116905080830192505050505050509192919290505050611614565b604051808215151515815260200191505060405180910390f35b34801561063b57600080fd5b506106886004803603604081101561065257600080fd5b81019080803573ffffffffffffffffffffffffffffffffffffffff169060200190929190803590602001909291905050506118e2565b604051808215151515815260200191505060405180910390f35b3480156106ae57600080fd5b506106f1600480360360208110156106c557600080fd5b81019080803573ffffffffffffffffffffffffffffffffffffffff169060200190929190505050611a3b565b6040518082815260200191505060405180910390f35b34801561071357600080fd5b506107606004803603604081101561072a57600080fd5b81019080803573ffffffffffffffffffffffffffffffffffffffff16906020019092919080359060200190929190505050611a8a565b604051808981526020018881526020018773ffffffffffffffffffffffffffffffffffffffff1673ffffffffffffffffffffffffffffffffffffffff16815260200186815260200180602001851515151581526020018415151515815260200183151515158152602001828103825286818151815260200191508051906020019080838360005b838110156108025780820151818401526020810190506107e7565b50505050905090810190601f16801561082f5780820380516001836020036101000a031916815260200191505b50995050505050505050505060405180910390f35b34801561085057600080fd5b5061087d6004803603602081101561086757600080fd5b8101908080359060200190929190505050611d93565b604051808215151515815260200191505060405180910390f35b3480156108a357600080fd5b506108e6600480360360208110156108ba57600080fd5b81019080803573ffffffffffffffffffffffffffffffffffffffff169060200190929190505050611e6d565b6040518082815260200191505060405180910390f35b600060026000838152602001908152602001600020600001805490509050919050565b600080600260008681526020019081526020016000206000018481548110151561094557fe5b906000526020600020906006020160020160009054906101000a900473ffffffffffffffffffffffffffffffffffffffff16905061098283611eb5565b1515610992576000915050610ca0565b8073ffffffffffffffffffffffffffffffffffffffff163373ffffffffffffffffffffffffffffffffffffffff161415156109d1576000915050610ca0565b6109d9611ee5565b60026000878152602001908152602001600020600001858154811015156109fc57fe5b906000526020600020906006020160e0604051908101604052908160008201548152602001600182015481526020016002820160009054906101000a900473ffffffffffffffffffffffffffffffffffffffff1673ffffffffffffffffffffffffffffffffffffffff1673ffffffffffffffffffffffffffffffffffffffff168152602001600382015481526020016004820160206040519081016040529081600082018054600181600116156101000203166002900480601f016020809104026020016040519081016040528092919081815260200182805460018160011615610100020316600290048015610b345780601f10610b0957610100808354040283529160200191610b34565b820191906000526020600020905b815481529060010190602001808311610b1757829003601f168201915b50505050508152505081526020016005820160009054906101000a900460ff161515151581526020016005820160019054906101000a900460ff16151515158152505090508381608001516000018190525060018160a0019015159081151581525050806002600088815260200190815260200160002060000186815481101515610bbb57fe5b9060005260206000209060060201600082015181600001556020820151816001015560408201518160020160006101000a81548173ffffffffffffffffffffffffffffffffffffffff021916908373ffffffffffffffffffffffffffffffffffffffff160217905550606082015181600301556080820151816004016000820151816000019080519060200190610c53929190611f46565b50505060a08201518160050160006101000a81548160ff02191690831515021790555060c08201518160050160016101000a81548160ff0219169083151502179055509050506001925050505b9392505050565b6000806002600085815260200190815260200160002060000183815481101515610ccd57fe5b906000526020600020906006020160020160009054906101000a900473ffffffffffffffffffffffffffffffffffffffff1690506002600085815260200190815260200160002060000180549050831115610d2c576000915050610dbe565b8073ffffffffffffffffffffffffffffffffffffffff163373ffffffffffffffffffffffffffffffffffffffff16141515610d6b576000915050610dbe565b60016002600086815260200190815260200160002060000184815481101515610d9057fe5b906000526020600020906006020160050160016101000a81548160ff02191690831515021790555060019150505b92915050565b6000610dcf82611eb5565b1515610dde5760009050611140565b610de6611fc6565b600160003373ffffffffffffffffffffffffffffffffffffffff1673ffffffffffffffffffffffffffffffffffffffff16815260200190815260200160002060000184815481101515610e3557fe5b9060005260206000209060060201610100604051908101604052908160008201548152602001600182015481526020016002820160009054906101000a900473ffffffffffffffffffffffffffffffffffffffff1673ffffffffffffffffffffffffffffffffffffffff1673ffffffffffffffffffffffffffffffffffffffff168152602001600382015481526020016004820160206040519081016040529081600082018054600181600116156101000203166002900480601f016020809104026020016040519081016040528092919081815260200182805460018160011615610100020316600290048015610f6e5780601f10610f4357610100808354040283529160200191610f6e565b820191906000526020600020905b815481529060010190602001808311610f5157829003601f168201915b50505050508152505081526020016005820160009054906101000a900460ff161515151581526020016005820160019054906101000a900460ff161515151581526020016005820160029054906101000a900460ff16151515158152505090508281608001516000018190525060018160c001901515908115158152505080600160003373ffffffffffffffffffffffffffffffffffffffff1673ffffffffffffffffffffffffffffffffffffffff1681526020019081526020016000206000018581548110151561103c57fe5b9060005260206000209060060201600082015181600001556020820151816001015560408201518160020160006101000a81548173ffffffffffffffffffffffffffffffffffffffff021916908373ffffffffffffffffffffffffffffffffffffffff1602179055506060820151816003015560808201518160040160008201518160000190805190602001906110d4929190611f46565b50505060a08201518160050160006101000a81548160ff02191690831515021790555060c08201518160050160016101000a81548160ff02191690831515021790555060e08201518160050160026101000a81548160ff02191690831515021790555090505060019150505b92915050565b6000806000806060600080611159611ee5565b600260008b81526020019081526020016000206000018981548110151561117c57fe5b906000526020600020906006020160e0604051908101604052908160008201548152602001600182015481526020016002820160009054906101000a900473ffffffffffffffffffffffffffffffffffffffff1673ffffffffffffffffffffffffffffffffffffffff1673ffffffffffffffffffffffffffffffffffffffff168152602001600382015481526020016004820160206040519081016040529081600082018054600181600116156101000203166002900480601f0160208091040260200160405190810160405280929190818152602001828054600181600116156101000203166002900480156112b45780601f10611289576101008083540402835291602001916112b4565b820191906000526020600020905b81548152906001019060200180831161129757829003601f168201915b50505050508152505081526020016005820160009054906101000a900460ff161515151581526020016005820160019054906101000a900460ff1615151515815250509050600260008b8152602001908152602001600020600001805490508910158061132257508060c001515b15611381576000806001026000806040805190810160405280601981526020017f4e6f205265706c69657320746f20746869732054776565642100000000000000815250600060018494509750975097509750975097509750506113bb565b80600001518160200151826040015183606001518460800151600001518560a001518660c001518292509750975097509750975097509750505b92959891949750929550565b60006113d282611eb5565b15156113e1576000905061160e565b6113e9612031565b602060405190810160405280848152509050600084846040516020018083815260200182805190602001908083835b60208310151561143d5780518252602082019150602081019050602083039250611418565b6001836020036101000a038019825116818451168082178552505050505050905001925050506040516020818303038152906040528051906020012090506000600260008781526020019081526020016000206000018054905090506114a1611ee5565b60e0604051908101604052808381526020018481526020013373ffffffffffffffffffffffffffffffffffffffff168152602001428152602001858152602001600015158152602001600015158152509050600260008881526020019081526020016000206000018190806001815401808255809150509060018203906000526020600020906006020160009091929091909150600082015181600001556020820151816001015560408201518160020160006101000a81548173ffffffffffffffffffffffffffffffffffffffff021916908373ffffffffffffffffffffffffffffffffffffffff1602179055506060820151816003015560808201518160040160008201518160000190805190602001906115bf929190611f46565b50505060a08201518160050160006101000a81548160ff02191690831515021790555060c08201518160050160016101000a81548160ff02191690831515021790555050505060019450505050505b92915050565b600061161f82611eb5565b151561162e57600090506118dd565b611636612045565b6020604051908101604052808481525090506000600160003373ffffffffffffffffffffffffffffffffffffffff1673ffffffffffffffffffffffffffffffffffffffff168152602001908152602001600020600001805490509050600081856040516020018083815260200182805190602001908083835b6020831015156116d457805182526020820191506020810190506020830392506116af565b6001836020036101000a0380198251168184511680821785525050505050509050019250505060405160208183030381529060405280519060200120905061171a611fc6565b610100604051908101604052808481526020018381526020013373ffffffffffffffffffffffffffffffffffffffff168152602001428152602001858152602001600015158152602001600015158152602001600015158152509050600160003373ffffffffffffffffffffffffffffffffffffffff1673ffffffffffffffffffffffffffffffffffffffff1681526020019081526020016000206000018190806001815401808255809150509060018203906000526020600020906006020160009091929091909150600082015181600001556020820151816001015560408201518160020160006101000a81548173ffffffffffffffffffffffffffffffffffffffff021916908373ffffffffffffffffffffffffffffffffffffffff16021790555060608201518160030155608082015181600401600082015181600001908051906020019061186e929190611f46565b50505060a08201518160050160006101000a81548160ff02191690831515021790555060c08201518160050160016101000a81548160ff02191690831515021790555060e08201518160050160026101000a81548160ff02191690831515021790555050505060019450505050505b919050565b6000816000803373ffffffffffffffffffffffffffffffffffffffff1673ffffffffffffffffffffffffffffffffffffffff1681526020019081526020016000205410156119335760009050611a35565b816000803373ffffffffffffffffffffffffffffffffffffffff1673ffffffffffffffffffffffffffffffffffffffff16815260200190815260200160002060008282540392505081905550816000808573ffffffffffffffffffffffffffffffffffffffff1673ffffffffffffffffffffffffffffffffffffffff168152602001908152602001600020600082825401925050819055508273ffffffffffffffffffffffffffffffffffffffff163373ffffffffffffffffffffffffffffffffffffffff167fddf252ad1be2c89b69c2b068fc378daa952ba7f163c4a11628f55a4df523b3ef846040518082815260200191505060405180910390a3600190505b92915050565b6000600160008373ffffffffffffffffffffffffffffffffffffffff1673ffffffffffffffffffffffffffffffffffffffff168152602001908152602001600020600001805490509050919050565b60008060008060606000806000611a9f611fc6565b600160008c73ffffffffffffffffffffffffffffffffffffffff1673ffffffffffffffffffffffffffffffffffffffff1681526020019081526020016000206000018a815481101515611aee57fe5b9060005260206000209060060201610100604051908101604052908160008201548152602001600182015481526020016002820160009054906101000a900473ffffffffffffffffffffffffffffffffffffffff1673ffffffffffffffffffffffffffffffffffffffff1673ffffffffffffffffffffffffffffffffffffffff168152602001600382015481526020016004820160206040519081016040529081600082018054600181600116156101000203166002900480601f016020809104026020016040519081016040528092919081815260200182805460018160011615610100020316600290048015611c275780601f10611bfc57610100808354040283529160200191611c27565b820191906000526020600020905b815481529060010190602001808311611c0a57829003601f168201915b50505050508152505081526020016005820160009054906101000a900460ff161515151581526020016005820160019054906101000a900460ff161515151581526020016005820160029054906101000a900460ff1615151515815250509050600160008c73ffffffffffffffffffffffffffffffffffffffff1673ffffffffffffffffffffffffffffffffffffffff168152602001908152602001600020600001805490508a101580611ce35750600115158160e001511515145b15611d45576000806001026000806040805190810160405280601a81526020017f4e6f20547765656473206f6e2074686973204163636f756e742100000000000081525060008060018595509850985098509850985098509850985050611d86565b80600001518160200151826040015183606001518460800151600001518560a001518660c001518760e0015183935098509850985098509850985098509850505b9295985092959890939650565b6000600160003373ffffffffffffffffffffffffffffffffffffffff1673ffffffffffffffffffffffffffffffffffffffff16815260200190815260200160002060000180549050821115611deb5760009050611e68565b60018060003373ffffffffffffffffffffffffffffffffffffffff1673ffffffffffffffffffffffffffffffffffffffff16815260200190815260200160002060000183815481101515611e3b57fe5b906000526020600020906006020160050160026101000a81548160ff021916908315150217905550600190505b919050565b60008060008373ffffffffffffffffffffffffffffffffffffffff1673ffffffffffffffffffffffffffffffffffffffff168152602001908152602001600020549050919050565b6000808251905060b4811180611ecb5750600081145b15611eda576000915050611ee0565b60019150505b919050565b60e0604051908101604052806000815260200160008019168152602001600073ffffffffffffffffffffffffffffffffffffffff16815260200160008152602001611f2e612059565b81526020016000151581526020016000151581525090565b828054600181600116156101000203166002900490600052602060002090601f016020900481019282601f10611f8757805160ff1916838001178555611fb5565b82800160010185558215611fb5579182015b82811115611fb4578251825591602001919060010190611f99565b5b509050611fc2919061206d565b5090565b610100604051908101604052806000815260200160008019168152602001600073ffffffffffffffffffffffffffffffffffffffff16815260200160008152602001612010612092565b81526020016000151581526020016000151581526020016000151581525090565b602060405190810160405280606081525090565b602060405190810160405280606081525090565b602060405190810160405280606081525090565b61208f91905b8082111561208b576000816000905550600101612073565b5090565b90565b60206040519081016040528060608152509056fea165627a7a72305820edb6188d1b477b573738b8e594aa41822b0c589d022b5415903713b25b37787d0029",
  "source": "pragma solidity >=0.4.25 <0.6.0;\n\nimport \"./TweederCore.sol\";\nimport \"./TweederCoin.sol\";\n\ncontract Tweeder is TweederCoin, TweederCore{\n    event Transfer(address indexed _from, address indexed _to, uint256 _value);\n    constructor() public {\n\n    }\n\n}\n",
  "sourcePath": "/Users/mock/Documents/self/ethereum/Tweeder/contracts/Tweeder.sol",
  "compiler": {
    "name": "solc",
    "version": "0.5.0+commit.1d4f565a.Emscripten.clang"
  },
  "schemaVersion": "3.0.1",
  "updatedAt": "2019-02-11T14:02:10.589Z",
  "devdoc": {
    "methods": {}
  },
  "userdoc": {
    "methods": {}
  }
}